:100000000C9473000C9487250C9460250C940626A0
:100010000C9406260C9406260C949B000C949B00D2
:100020000C949B000C949B000C949B000C949B00E4
:100030000C949B000C949B000C949B000C949B00D4
:100040000C9416250C949B000C94D4250C94AE258E
:100050000C949B000C949B000C949B000C949B00B4
:100060000C9410260C949B00000000002300260036
:1000700029001F1C1F1E1F1E1F1F1E1F1E31343A6A
:1000800033353A3131005365702031392032303206
:10009000320000000000240027002A0000000000B9
:1000A000250028002B0004040404040404040202B4
:1000B00002020202030303030303010204081020E7
:1000C00040800102040810200102040810200000F2
:1000D0000008000201000003040700000000000007
:1000E00000003C279A2C11241FBECFEFD8E0DEBFC2
:1000F000CDBF24E0A8E2B3E001C01D92A33FB20748
:10010000E1F713E0A0E0B1E0E6EFF2E602C005900F
:100110000D92A832B107D9F710E0C2E7D0E004C0D1
:100120002197FE010E945B2FC137D107C9F70E94BA
:10013000CB270C946E310C940000833081F028F4AE
:10014000813099F08230A9F008958730A9F0883085
:10015000C9F08430B1F4809180008F7D03C080911C
:1001600080008F7780938000089584B58F7784BD59
:10017000089584B58F7DFBCF8091B0008F778093F9
:10018000B00008958091B0008F7DF9CF1F93CF9379
:10019000DF93282F30E0F901E253FF4F8491F901FA
:1001A000E654FF4FD491F901EA55FF4FC491CC2397
:1001B000A9F0162F81110E949D00EC2FF0E0EE0FA8
:1001C000FF1FE456FF4FA591B4918FB7F894EC91BF
:1001D000111108C0D095DE23DC938FBFDF91CF9142
:1001E0001F910895DE2BF8CFCF93DF9390E0FC01B1
:1001F000E654FF4F24918A559F4FFC018491882338
:10020000C9F090E0880F991FFC01EE56FF4FA591B1
:10021000B491FC01E456FF4FC591D49161110DC01A
:100220009FB7F8948C91209582238C938881282302
:1002300028839FBFDF91CF910895623051F49FB71B
:10024000F8943C91822F809583238C93E8812E2B08
:10025000EFCF8FB7F894EC912E2B2C938FBFEACF72
:100260003FB7F89480919D0390919E03A0919F03C6
:10027000B091A00326B5A89B05C02F3F19F00196A9
:10028000A11DB11D3FBFBA2FA92F982F8827BC01F0
:10029000CD01620F711D811D911D42E0660F771F18
:1002A000881F991F4A95D1F708958F929F92AF9218
:1002B000BF92CF92DF92EF92FF924B015C010E94BE
:1002C00030016B017C010E9430016C197D098E099F
:1002D0009F09683E734081059105A8F321E0821AC9
:1002E0009108A108B10888EEC80E83E0D81EE11C71
:1002F000F11C81149104A104B10429F7FF90EF903F
:10030000DF90CF90BF90AF909F908F900895089509
:10031000089508950895AF92BF92CF92DF92EF9221
:10032000FF920F931F93CF93DF936C017B018B019F
:10033000040F151FEB015E01AE18BF08C017D107EF
:1003400059F06991D601ED91FC910190F081E02D79
:10035000C6010995892B79F7C501DF91CF911F91CE
:100360000F91FF90EF90DF90CF90BF90AF900895E6
:10037000FC0144815581608171818BE194E00C9492
:100380008B01FC01538D448D252F30E0842F90E0AC
:10039000821B930B541710F0CF9608950197089580
:1003A000FC01918D828D981761F0A28DAE0FBF2F49
:1003B000B11D5D968C91928D9F5F9F73928F90E09F
:1003C00008958FEF9FEF08952FB7F8948091A103C0
:1003D0009091A203A091A303B091A4032FBF809397
:1003E000230490932404A0932504B09326048BE166
:1003F00094E00E94D00197FF26C02FB7F894809117
:10040000A1039091A203A091A303B091A4032FBFD5
:100410004091230450912404609125047091260496
:10042000841B950BA60BB70B40911F045091200421
:10043000609121047091220484179507A607B707DD
:10044000B0F28FEF9FEF0895FC01918D828D981788
:1004500031F0828DE80FF11D858D90E008958FEFCA
:100460009FEF0895FC01918D228D892F90E0805C93
:100470009F4F821B91098F73992708958BE194E018
:100480000E94320221E0892B09F420E0822F089596
:1004900080E090E0892B29F00E943E0281110C94AB
:1004A00000000895FC01A48DA80FB92FB11DA35A17
:1004B000BF4F2C91848D90E001968F739927848F84
:1004C000A689B7892C93A089B1898C9183708064A7
:1004D0008C93938D848D981306C00288F389E02D48
:1004E00080818F7D80830895EF92FF920F931F93F9
:1004F000CF93DF93EC0181E0888F9B8D8C8D9813D7
:100500001AC0E889F989808185FF15C09FB7F894E2
:10051000EE89FF896083E889F9898081837080642E
:1005200080839FBF81E090E0DF91CF911F910F9179
:10053000FF90EF900895F62E0B8D10E00F5F1F4F88
:100540000F731127E02E8C8D8E110CC00FB607FC97
:10055000FACFE889F989808185FFF5CFCE010E9425
:100560005202F1CFEB8DEC0FFD2FF11DE35AFF4F3F
:10057000F0829FB7F8940B8FEA89FB8980818062B3
:10058000CFCFCF93DF93EC01888D8823B9F0AA8970
:10059000BB89E889F9898C9185FD03C0808186FD3E
:1005A0000DC00FB607FCF7CF8C9185FFF2CF80818D
:1005B00085FFEDCFCE010E945202E9CFDF91CF91AE
:1005C000089520914903260F3327331F2132310527
:1005D000ECF42091F103FC0190E080E0243069F01C
:1005E00082E00895A09149032191AC01475D5C4FE1
:1005F000A40FB52FB11D2C930196861798F3809107
:100600004903680F6093490380E0089581E00895ED
:100610001092F10381E08093F0031092CB0361E02C
:1006200082E10E94C60061E083E10E94C600E9EB1E
:10063000F0E080818E7F808380818D7F808388E45D
:100640008093B80085E48093BC000895CF93DF9336
:1006500091E0909328038823B9F0C091B800D0911D
:10066000BA008091BC008A7B8093BC0060E082E18C
:100670000E94C60060E083E10E94C6000E94080359
:10068000D093BA00C093B800DF91CF9108958F92B4
:100690009F92AF92BF92CF92DF92EF92FF920F9311
:1006A0001F93CF93DF93D0911A04D13208F0D7C0B3
:1006B000182FC09119040E9430016B017C018091B8
:1006C000F10381116BC082E08093F1031093F0037A
:1006D0008FEF8093EF031092EE03D093ED03A9EF19
:1006E000B3E0EDECF3E080E0D81391C01092CC03BE
:1006F0008091CC03CC0FC82BC093CC038091CB034B
:10070000813009F088C01092CB030E9430016B0148
:100710007C018091CC038093BB008091F303909186
:10072000F403A091F503B091F603892B8A2B8B2B50
:10073000A1F00E9430010091F3031091F403209185
:10074000F5033091F6036C197D098E099F09061790
:1007500017072807390708F442C08091BC0083FDC1
:10076000D8CF85EC8093BC000E9430016B017C01E6
:100770008091F103823009F450C08091EF038F3FE4
:1007800009F46FC08091EF03803209F46CC080914E
:10079000EF03803309F469C084E026C08091F3033D
:1007A0009091F403A091F503B091F603892B8A2B65
:1007B0008B2B09F484CF0E9430018090F30390903A
:1007C000F403A090F503B090F6036C197D098E092F
:1007D0009F0986169706A806B90608F070CF809183
:1007E000F2030E94260385E01092F80310921A0487
:1007F0001092F703DF91CF911F910F91FF90EF902F
:10080000DF90CF90BF90AF909F908F9008959D9173
:1008100091938F5F69CF85EEA5CF8091F30390917F
:10082000F403A091F503B091F603892B8A2B8B2B4F
:1008300009F49ECF0E9430010091F3031091F4035C
:100840002091F5033091F6036C197D098E099F09FB
:10085000061717072807390708F08ACFC0CF81E0AD
:10086000C3CF80E0C1CF82E0BFCF83E0BDCF08958A
:10087000E091AA038091A903E81730F4F0E0E55570
:10088000FC4F808190E008958FEF9FEF0895909145
:10089000AA038091A9032FEF3FEF981748F4E92F9F
:1008A000F0E0E555FC4F208130E09F5F9093AA0374
:1008B000C90108958091A9039091AA03891B990BFE
:1008C0000895CF92DF92EF92FF920F931F93CF93F1
:1008D000DF937C01CB018A012091F703222389F069
:1008E000EB016B01C40ED51ECC15DD0569F06991D5
:1008F000D701ED91FC910190F081E02DC7010995A0
:10090000F3CF642F0E94E102C801DF91CF911F91C4
:100910000F91FF90EF90DF90CF900895CF93DF93EA
:100920001F92CDB7DEB769832091F7032223F9F038
:1009300020911A04203258F021E030E0FC0133838A
:10094000228390E080E00F90DF91CF910895809115
:10095000F803E82FF0E0E750FC4F998190838F5F18
:100960008093F80380931A0481E090E0ECCF61E07B
:10097000CE0101960E94E102F7CF90E080E0089559
:100980001F93CF93DF93EA01122FDC0111968D9113
:100990009C91DC01ED91FC910280F381E02D0995A1
:1009A000C817D90729F4812F0E94470391E08111CC
:1009B00090E0892FDF91CF911F910895CF93DF931E
:1009C000EC018B818823A1F0888191E09093F7035B
:1009D000809319041092F80310921A0481E00E9487
:1009E000470391E0811190E0892FDF91CF91089525
:1009F0001092AA031092A9031092F80310921A04FD
:100A00000E94080387E891E090937103809370033C
:100A100088E891E090936F0380936E0381E08B836D
:100A2000CE010E94DE04982F8111CECFDDCFEF9250
:100A3000FF920F931F93CF93DF93EC01698138816D
:100A4000432F50E02A81822F90E0E2E7F0E021E09E
:100A5000261730F47491870F911D2F5F3196F8CFD0
:100A6000633018F0337009F401966DE671E0469F2B
:100A70009001479F300D569F300D112421503109B0
:100A80004D5F5F4F5695479556954795240F351FF7
:100A9000280F391FA8E1B0E00E94342E2B817B0182
:100AA0008C01E20EF11C011D111DA8019701ACE3A0
:100AB000B0E00E94F22D2C817B018C01E20EF11C32
:100AC000011D111DA80197010E94F22DAB01BC016F
:100AD0009D81892F90E0B0E0A0E080589C4BA24916
:100AE000B74C8A019B01080F191F2A1F3B1FC90120
:100AF000B801DF91CF911F910F91FF90EF90089572
:100B00008F929F92AF92BF92CF92DF92EF92FF921D
:100B1000CF93DF93EC016A017B0180E8C81A83E47C
:100B2000D80A8DE6E80A88E3F80A8CE3882E912C2F
:100B3000A12CB12CC701B601A50194010E941A2F66
:100B40006D83CA01B901A50194010E941A2F6C831B
:100B5000C701B60120E13EE040E050E00E941A2FBC
:100B6000CA01B90128E130E040E050E00E941A2FAC
:100B70006B83C701B60120E831E541E050E00E94F7
:100B80001A2F188263E97EEF8881982F937041E0D5
:100B900050E011F050E040E0FA01E359FE4F2E170B
:100BA0003F0740F0FB01E41BF50B2E0F3F1F8F5F4B
:100BB0008883EACF81E0898389818C30A0F4482F33
:100BC0004150550BFA01EE58FF4FE491911103C0CB
:100BD000823009F4EF5FF0E02E173F0720F02E1B64
:100BE0003F0B8F5FE8CF2F5F2A83DF91CF91FF907C
:100BF000EF90DF90CF90BF90AF909F908F9008952F
:100C00000F931F93CF93DF938B01EC016C817D8158
:100C10006115710551F0CE01F801099518161906F4
:100C200024F00C80DD81C02DF1CFCE01DF91CF917A
:100C30001F910F9108950F931F93CF93DF938B0113
:100C4000EC016B817C816115710551F0CE01F801D9
:100C500009951816190624F00B80DC81C02DF1CF00
:100C6000CE01DF91CF911F910F9108950F931F93A4
:100C7000CF93DF938B01EC016E817F81611571054C
:100C800051F0CE01F80109951816190624F00E80CE
:100C9000DF81C02DF1CFCE01DF91CF911F910F9158
:100CA00008954F925F926F927F928F929F92AF9230
:100CB000BF92CF92DF92EF92FF920F931F93CF9349
:100CC000DF93FC012281338122303105F4F05B0196
:100CD0006C012C01F4E04F0E511C7201F701C08130
:100CE000D1812097D1F3B501CE010E9400064C01BD
:100CF000FC010481158101151105C1F4E414F5040A
:100D000061F7F601978386831486DF91CF911F9157
:100D10000F91FF90EF90DF90CF90BF90AF909F909A
:100D20008F907F906F905F904F900895B501C801AC
:100D30000E940006FC0164807580F4011582148213
:100D4000FC0115821482B801CE01F5010995F70165
:100D5000181619066CF0D183C0837E01F4E0EF0E03
:100D6000F11C8C819D81009781F41D830C831CC034
:100D7000118300837801F4E0EF0EF11CF801848107
:100D800095810097D1F08C01CE01EC01DCCFEC0114
:100D90008C819D810097D9F77D826C827E01F4E081
:100DA000EF0EF11C9BCF8C01F80184819581009797
:100DB000D1F7758264827801F2CFD583C483E8CFFE
:100DC000CF93DF93EC01E881F9810480F581E02D78
:100DD000CE0109951816190644F4E881F9810288B4
:100DE000F389E02DCE010995EECFDF91CF910895E3
:100DF0004F925F926F927F928F929F92AF92BF922B
:100E0000CF92DF92EF92FF920F931F93CF93DF93D6
:100E1000FC012281338122303105F4F05B016C0149
:100E20002C01F4E04F0E511C7201F701C081D181F9
:100E30002097D1F3B501CE010E941B064C01FC01A5
:100E40000381148101151105C1F4E414F50461F75F
:100E5000F601978386831486DF91CF911F910F91BE
:100E6000FF90EF90DF90CF90BF90AF909F908F90CA
:100E70007F906F905F904F900895B501C8010E94D8
:100E80001B06FC0163807480F40114821382FC0150
:100E900014821382B801CE01F5010995F7011816E5
:100EA00019066CF0D183C0837E01F3E0EF0EF11CD4
:100EB0008B819C81009781F41C830B831CC0118360
:100EC00000837801F3E0EF0EF11CF8018381948137
:100ED0000097D1F08C01CE01EC01DCCFEC018B81CD
:100EE0009C810097D9F77C826B827E01F3E0EF0E44
:100EF000F11C9BCF8C01F801838194810097D1F77D
:100F0000748263827801F2CFD483C383E8CFCF9316
:100F1000DF93EC01E881F9810480F581E02DCE01B9
:100F200009951816190644F4E881F9810288F389B5
:100F3000E02DCE010995EECFDF91CF9108954F922C
:100F40005F926F927F928F929F92AF92BF92CF9259
:100F5000DF92EF92FF920F931F93CF93DF93FC01E9
:100F60002281338122303105F4F05B016C012C01C8
:100F7000F4E04F0E511C7201F701C081D18120971E
:100F8000D1F3B501CE010E9436064C01FC01068169
:100F9000178101151105C1F4E414F50461F7F60198
:100FA000978386831486DF91CF911F910F91FF90D5
:100FB000EF90DF90CF90BF90AF909F908F907F90F9
:100FC0006F905F904F900895B501C8010E9436065A
:100FD000FC0166807780F40117821682FC0117827B
:100FE0001682B801CE01F5010995F7011816190608
:100FF0006CF0D183C0837E01F6E0EF0EF11C8E8190
:101000009F81009781F41F830E831CC0118300838E
:101010007801F6E0EF0EF11CF801868197810097C8
:10102000D1F08C01CE01EC01DCCFEC018E819F81EF
:101030000097D9F77F826E827E01F6E0EF0EF11CF9
:101040009BCF8C01F801868197810097D1F7778239
:1010500066827801F2CFD783C683E8CF0F931F93C0
:10106000CF93DF9300D000D000D0CDB7DEB78C0196
:10107000D801ED91FC910480F581E02DC80109951E
:10108000181619067CF4D801ED91FC910288F389B9
:10109000E02DC801099529833A834B835C836D83D6
:1010A0007E83E6CF26960FB6F894DEBF0FBECDBF87
:1010B000DF91CF911F910F910895DC011496ED916E
:1010C000FC9115971C968C911C978823B1F01A9669
:1010D0002D913C911B97621773077CF01896ED9148
:1010E000FC911997261737075CF43097C1F00680FA
:1010F000F781E02D2F5F3F4FF5CF30E020E0F2CFBA
:101100002617370771F481E01C968C931C971B9669
:101110003C932E931A971996FC93EE931897CF0150
:101120000895F0E0E0E0FBCF0F931F93CF93DF93A0
:1011300000D000D000D0CDB7DEB709831A832B834F
:101140003C834D835E8377FD1CC0FC01228133818B
:1011500062177307B4F40E945D08DC0196E0FE019B
:10116000319601900D929A95E1F781E026960FB69F
:10117000F894DEBF0FBECDBFDF91CF911F910F91CD
:10118000089580E0F3CFDC011496ED91FC91159762
:101190001C968C911C978823B1F01A962D913C9146
:1011A0001B97621773077CF01896ED91FC911997C5
:1011B000261737075CF43097C1F00380F481E02DE7
:1011C0002F5F3F4FF5CF30E020E0F2CF26173707F3
:1011D00071F481E01C968C931C971B963C932E9384
:1011E0001A971996FC93EE931897CF010895F0E0A3
:1011F000E0E0FBCFCF92DF92EF9277FD14C0DC01ED
:101200001296ED91FC916E177F076CF46901E42E44
:101210000E94C308FC01C082D182E28281E0EF908B
:10122000DF90CF90089580E0FACFDC011496ED9125
:10123000FC9115971C968C911C978823B1F01A96F7
:101240002D913C911B97621773077CF01896ED91D6
:10125000FC911997261737075CF43097C1F004808A
:10126000F581E02D2F5F3F4FF5CF30E020E0F2CF4A
:101270002617370771F481E01C968C931C971B96F8
:101280003C932E931A971996FC93EE931897CF01DF
:101290000895F0E0E0E0FBCFCF92DF92EF92FF9273
:1012A00077FD16C0DC011296ED91FC916E177F0759
:1012B0007CF469017A010E941509FC01C082D18287
:1012C000E282F38281E0FF90EF90DF90CF9008956B
:1012D00080E0F9CFCF93DF9300D000D000D0CDB71E
:1012E000DEB70E945D08FC01DE011196892BB1F08A
:1012F00096E001900D929A95E1F729813A814B8110
:101300005C816D817E8180E090E026960FB6F89436
:10131000DEBF0FBECDBFDF91CF91089586E0FD0106
:1013200011928A95E9F781E08E83E7CFFC018281F3
:10133000938108950E94C308FC01892B21F06081EC
:1013400071818281089570E080E067E008950E94D5
:101350001509FC01892B29F06081718182819381BB
:10136000089560E070E080E090E09F7E08958F92A5
:101370009F92AF92BF92CF92DF92EF92FF920F9324
:101380001F93CF93DF93B62E072F182FEA01CA01C0
:101390000E9417056B012B2D302F412F4F7750E006
:1013A0000CE310E0ACE3B0E00E94F22D8090EB047F
:1013B0009090EC04A090ED04B090EE04860E971E81
:1013C000A81EB91EC818D90885ECC8168FEFD80614
:1013D0004CF1CE010E941705CB0188199909B8017B
:1013E0000E94062F072E000C880B990B0E944D2D92
:1013F00020E030E040E05FE30E94442E0E94B02EE7
:1014000077FF02C06EEF7FEFCB01DF91CF911F918D
:101410000F91FF90EF90DF90CF90BF90AF909F9093
:101420008F900895CE010E941705CB018819990964
:10143000B8010E94062F072E000C880B990B0E9402
:101440004D2D20E030E040E05FE30E94432ED6CFF8
:10145000CF92DF92EF92FF92CF93DF93EC018091D6
:10146000EB049091EC04A091ED04B091EE046A01BC
:101470007B01C81AD90AEA0AFB0AC701B6012CE3A4
:1014800030E040E050E00E943C2FCA01B9010E94C8
:101490004D2D25ECC2162FEFD206E206F206BCF067
:1014A00020E030E040E05FE30E94442E0E94B02E36
:1014B00068837983982F9F778A818078892B8A83A4
:1014C000DF91CF91FF90EF90DF90CF90089520E0D3
:1014D00030E040E05FE30E94432EE8CF0F931F937C
:1014E000CF93DF93EC018091EB049091EC048A019F
:1014F000081B190BC8016CE370E00E94062F072E31
:10150000000C880B990B0E944D2D053C1F4FBCF021
:1015100020E030E040E05FE30E94442E0E94B02EC5
:10152000362F272F982F388329839F778A818078B9
:10153000892B8A83DF91CF911F910F91089520E02D
:1015400030E040E05FE30E94432EE8CF0F931F930B
:10155000FC0120813181232BD9F482818F7721E016
:1015600009F420E030E050E040E0ACE3B0E00E945D
:10157000F22D0091EB041091EC042091ED043091D8
:10158000EE04600F711F821F931F1F910F9108952A
:1015900021E0E8CF2F923F924F925F926F927F921D
:1015A0008F929F92AF92BF92CF92DF92EF92FF9273
:1015B0000F931F93CF93DF935C011B016A01F12C02
:1015C000E12CD50114968D919C9186010E191F096D
:1015D0008017910708F48C01F501D0810E94300139
:1015E0002B013C018091F103811172C0C02F0132A7
:1015F00008F0C0E2F1E0F093F10321E0C601801BA6
:10160000910BE816F90608F420E02093F0038FEF21
:101610008093EF031092EE038C0F8093ED03A1E013
:10162000A093CC038091CC03DD0FD82BD093CC03B7
:101630008091CB03813009F090C01092CB030E94BF
:1016400030012B013C018091CC038093BB00809141
:10165000F3039091F403A091F503B091F603892B65
:101660008A2B8B2BA1F00E9430012091F303309143
:10167000F4034091F5035091F60364197509860946
:101680009709261737074807590708F442C0809181
:10169000BC0083FDD8CFB5ECB093BC000E943001F4
:1016A0002B013C018091F103813009F45AC08091F3
:1016B000EE038C1710F4C091EE03ADECB3E0EBEA4F
:1016C000F3E080E08C1751F19D9191938F5FFACFF9
:1016D0008091F3039091F403A091F503B091F60388
:1016E000892B8A2B8B2B09F47DCF0E94300120910E
:1016F000F3033091F4034091F5035091F60364191C
:10170000750986099709261737074807590708F00A
:1017100069CF8091F2030E942603C0E01092AA03D1
:10172000C093A903C017110609F057C041018E0CE0
:101730009F1CE401CE01881999098017910798F53B
:10174000D50111968D919C91DC01ED91FC91028463
:10175000F385E02D09958993EDCFE5EEE093BC008C
:101760009DCF8091F3039091F403A091F503B09184
:10177000F603892B8A2B8B2B09F494CF0E9430011E
:101780002091F3033091F4034091F5035091F60357
:1017900064197509860997092617370748075907F5
:1017A00008F080CFB6CFE00EF11EEC14FD0408F473
:1017B00008CF81E0DF91CF911F910F91FF90EF90C3
:1017C000DF90CF90BF90AF909F908F907F906F9061
:1017D0005F904F903F902F90089580E0EBCF0F9354
:1017E0001F93CF93DF93CDB7DEB728970FB6F8944A
:1017F000DEBF0FBECDBFDC018E010F5F1F4F86E045
:10180000F80111928A95E9F715963C9115972AE00F
:10181000832F622F0E94E62E982F880F890F880F42
:10182000830F8A8314963C911497832F0E94E62E8F
:10183000982F880F890F880F830F8B8313963C9105
:101840001397832F0E94E62E982F880F890F880FF9
:10185000830F8C8312963C911297832F0E94E62E61
:10186000982F880F890F880F830F8E8311963C91D4
:101870001197832F0E94E62E982F880F890F880FCB
:10188000830F8F833C91832F0E94E62E982F880F21
:10189000890F880F830F88878091A7039091A803F1
:1018A000FC01248135812830310580F0208131E030
:1018B0003093F703209319041092F80310921A043E
:1018C00021E048E050E0B8010E94C00428960FB61D
:1018D000F894DEBF0FBECDBFDF91CF911F910F9166
:1018E0000895EF92FF920F931F93CF93DF9300D051
:1018F00000D000D01F92CDB7DEB78C011982E090E6
:10190000A703F090A803D70114968D919C91159789
:10191000892BE9F08C9191E09093F703809319045F
:101920001092F80310921A0420E041E050E0BE014A
:101930006F5F7F4FC7010E94C004882341F047E0DA
:1019400050E0BE016F5F7F4FC7010E94CA0AE98164
:10195000EF77FA81FB804D815E818F81282F30E007
:1019600094E0359527959A95E1F7922F990F990F65
:10197000291B220F280FD8012C93852F90E024E0FB
:10198000959587952A95E1F7982F990F990F891BBF
:10199000880F850F11968C931197642F70E034E0B7
:1019A000759567953A95E1F7862F880F880F681B24
:1019B000660F640F12966C9312974F2D50E064E0FF
:1019C000559547956A95E1F7842F880F880F481B36
:1019D000440F4F0D13964C9313972F2F30E074E064
:1019E000359527957A95E1F7822F880F880F281B68
:1019F000220F2F0F14962C9314978E2F90E0F4E063
:101A000095958795FA95E1F7982F990F990F891B6E
:101A1000880F8E0F15968C93C80127960FB6F894F1
:101A2000DEBF0FBECDBFDF91CF911F910F91FF9011
:101A3000EF9008950F931F93CF93DF93CDB7DEB749
:101A40002C970FB6F894DEBF0FBECDBF0091A50353
:101A5000CE0101960E94710CCE0101960E941705DD
:101A6000002E000C110B220B330BAB01BC01400FFD
:101A7000511F621F731FCE0107960E948005CE0181
:101A800007960E9417052C960FB6F894DEBF0FBE7E
:101A9000CDBFDF91CF911F910F910895FC0101906F
:101AA0000020E9F73197AF01481B590BBC018BE1CE
:101AB00094E00C948B01CF93DF930E94B801EC016A
:101AC0008BE492E00E944E0D8C0F9D1FDF91CF9111
:101AD0000895CF93DF93D0E0C0E0009719F00E9403
:101AE0004E0DEC018BE492E00E944E0D8C0F9D1F79
:101AF000DF91CF91089561E084E00E94C60086E9FD
:101B000091E00C944E0DCF93DF93EC018881998185
:101B1000009711F00E940430198218821D821C82E5
:101B20001B821A82DF91CF910895FC0180819181FF
:101B3000009711F00C9404300895CF93DF93EC01DB
:101B40008CE791E0998388838C819D81009741F097
:101B5000FC01248135813D832C830E940430F4CF25
:101B6000DF91CF910895CF93DF93EC010E949D0DFB
:101B7000CE01DF91CF910C940430CF93DF93EC0131
:101B80008EE591E0998388838C819D81009741F057
:101B9000FC01238134813D832C830E940430F4CFE7
:101BA000DF91CF910895CF93DF93EC010E94BD0D9B
:101BB000CE01DF91CF910C940430CF93DF93EC01F1
:101BC00080E491E0998388838C819D81009741F026
:101BD000FC01268137813D832C830E940430F4CFA1
:101BE000DF91CF910895CF93DF93EC010E94DD0D3B
:101BF000CE01DF91CF910C940430CF92DF92EF921F
:101C0000FF920F931F93CF93DF93CDB7DEB72C973F
:101C10000FB6F894DEBF0FBECDBFFC0162817381A9
:101C20009E012F5F3F4F79011616170634F186E0AB
:101C3000F901282F11922A95E9F791E09E83F70187
:101C4000DE01179601900D928A95E1F72F81388574
:101C500049855A856B857C8580E090E02C960FB68F
:101C6000F894DEBF0FBECDBFDF91CF911F910F91D2
:101C7000FF90EF90DF90CF9008958C01FC011486C7
:101C800061307105F1F0625071090E945D086C01CC
:101C9000FC018681978126E0FC01D70101900D921D
:101CA0002A95E1F70E940430F60117821682F801A6
:101CB000D782C6828281938101979383828386E053
:101CC000BECF8481958126E0FC01D70101900D9261
:101CD0002A95E1F70E940430F801158214821782D8
:101CE000168213821282EBCFEF92FF920F931F9313
:101CF000CF93DF93CDB7DEB72C970FB6F894DEBF46
:101D00000FBECDBFDC0112962D913C911397121698
:101D100013062CF186E0FE013196DF01982F1D920B
:101D20009A95E9F791E09E83DE01179601900D9256
:101D30008A95E1F72F81388549855A856B857C85A1
:101D400080E090E02C960FB6F894DEBF0FBECDBFBA
:101D5000DF91CF911F910F91FF90EF900895213067
:101D6000310571F18C01DC0114968D919C91FC017F
:101D7000E680F78026E0DE01179601900D922A9505
:101D8000E1F70E940430D8011596FC92EE92149768
:101D900012968D919C911397019713969C938E9315
:101DA00012971C961C9286E0FE013796DE01119672
:101DB00001900D928A95E1F786E0FE013196B4CF4D
:101DC000ED91FC910088F189E02D2C960FB6F894E6
:101DD000DEBF0FBECDBFDF91CF911F910F91FF905E
:101DE000EF900994CF92DF92FF920F931F93CF93BE
:101DF000DF93DC0112966D917C91161617065CF04C
:101E000067E070E080E0DF91CF911F910F91FF902C
:101E1000DF90CF900895EC011C8661307105E9F0E8
:101E2000625071090E94C3086C01DC011396ED91A8
:101E3000FC91F08001811281CF010E940430F601F3
:101E400014821382DF82CE828A819B8101979B83D9
:101E50008A836F2D702F812FD6CFEC81FD81F0808A
:101E600001811281CF010E9404301D821C821F82D9
:101E70001E821B821A82EDCFCF92DF92FF920F93C8
:101E80001F93CF93DF93DC0112962D913C91139712
:101E9000121613065CF067E070E080E0DF91CF91EE
:101EA0001F910F91FF90DF90CF9008952130310561
:101EB000B9F0EC01EC81FD81C380D480F080018118
:101EC0001281CF010E940430DD82CC828A819B8105
:101ED00001979B838A831C866F2D702F812FDECF05
:101EE000ED91FC910088F189E02DDF91CF911F9158
:101EF0000F91FF90DF90CF900994CF92DF92EF92F5
:101F0000FF920F931F93CF93DF93DC0112966D9195
:101F10007C911616170674F060E070E080E090E0A7
:101F20009F7EDF91CF911F910F91FF90EF90DF90F7
:101F3000CF900895EC011C8661307105E9F0625084
:101F400071090E9415096C01DC011496ED91FC9158
:101F5000E080F18002811381CF010E940430F601FC
:101F600015821482DF82CE828A819B8101979B83B6
:101F70008A83B701C801D5CFEC81FD81E080F18073
:101F800002811381CF010E9404301D821C821F82B6
:101F90001E821B821A82EDCFCF92DF92EF92FF92C8
:101FA0000F931F93CF93DF93DC0112962D913C91F9
:101FB00013971216130674F060E070E080E090E072
:101FC0009F7EDF91CF911F910F91FF90EF90DF9057
:101FD000CF90089521303105B9F0EC01EC81FD81FD
:101FE000C480D580E080F18002811381CF010E94FE
:101FF0000430DD82CC828A819B8101979B838A8316
:102000001C86B701C801DDCFED91FC910088F189F4
:10201000E02DDF91CF911F910F91FF90EF90DF9016
:10202000CF9009940F931F93CF93DF93CDB7DEB773
:102030002C970FB6F894DEBF0FBECDBF77FD08C05A
:10204000DC0112962D913C911397621773071CF1D6
:1020500086E0FE013196DF01982F1D929A95E9F7EF
:1020600091E09E83DE01179601900D928A95E1F72B
:102070002F81388549855A856B857C8580E090E085
:102080002C960FB6F894DEBF0FBECDBFDF91CF9177
:102090001F910F9108956115710581F4ED91FC91E7
:1020A0000288F389E02D2C960FB6F894DEBF0FBEA0
:1020B000CDBFDF91CF911F910F910994215031092C
:1020C0002617370731F4ED91FC910088F189E02D56
:1020D000EACF8C01615071090E945D089C01FC01EE
:1020E0008681978146E0FC01DE01119601900D92F8
:1020F0004A95E1F7DC0116964D915C91F901578301
:1021000046830E940430D80112968D919C911397BA
:10211000019713969C938E9312971C961C9286E0BF
:10212000FE0131969FCFFF920F931F93CF93DF93C2
:1021300077FD08C0DC0112962D913C911397621730
:1021400073074CF067E070E080E0DF91CF911F9162
:102150000F91FF9008956115710559F4ED91FC916F
:102160000288F389E02DDF91CF911F910F91FF90AD
:102170000994215031092617370731F4ED91FC916C
:102180000088F189E02DEFCFEC01615071090E94C8
:10219000C308DC011396ED91FC911497F080018146
:1021A00012812381348114963C932E931397CF018F
:1021B0000E9404308A819B8101979B838A831C86BD
:1021C0006F2D702F812FC1CFEF92FF920F931F932E
:1021D000CF93DF9377FD08C0DC0112962D913C91DF
:1021E00013976217730764F060E070E080E090E09E
:1021F0009F7EDF91CF911F910F91FF90EF900895F7
:102200006115710561F4ED91FC910288F389E02D6F
:10221000DF91CF911F910F91FF90EF900994215082
:1022200031092617370731F4ED91FC910088F189C7
:10223000E02DEECFEC01615071090E941509DC011F
:102240001496ED91FC911597E080F1800281138145
:102250002481358115963C932E931497CF010E94CB
:1022600004308A819B8101979B838A831C86B701F6
:10227000C801BFCFCF92DF92EF92FF920F931F93CF
:10228000CF93DF9300D000D000D0CDB7DEB7098365
:102290001A832B833C834D835E83DC0112962D9140
:1022A0003C91139762177307CCF0ED91FC91008479
:1022B000F185E02D98014B815C816D817E812696B0
:1022C0000FB6F894DEBF0FBECDBFDF91CF911F9147
:1022D0000F91FF90EF90DF90CF90099461157105F9
:1022E00041F4ED91FC910284F385E02D29813A813E
:1022F000E2CF8B016C0188E090E00E94682F7C01A6
:1023000088E0F70111928A95E9F7D70114961C929B
:10231000149781E015968C93B80161507109C6013C
:102320000E945D0826E0FE013196D70101900D92D2
:102330002A95E1F7FC0126813781D70117963C9356
:102340002E931697F782E682F60182819381019699
:1023500093838283148681E026960FB6F894DEBFBD
:102360000FBECDBFDF91CF911F910F91FF90EF90E6
:10237000DF90CF900895CF92DF92EF92FF920F936C
:102380001F93CF93DF93DC0112960D911C9113974D
:102390000115110571F4ED91FC910084F185E02D9A
:1023A000DF91CF911F910F91FF90EF90DF90CF9031
:1023B00009946A017B01EC0186E090E00E94682F9D
:1023C0002C813D81FC0135832483C082D182E2824D
:1023D000F3829D838C830F5F1F4F1B830A831C86B0
:1023E00081E0DF91CF911F910F91FF90EF90DF90EF
:1023F000CF900895AF92BF92CF92DF92EF92FF926B
:102400000F931F93CF93DF93DB01BA01A901EC0176
:10241000EA81FB81AE17BF0784F0E881F98100846F
:10242000F185E02DDF91CF911F910F91FF90EF90FB
:10243000DF90CF90BF90AF900994109731F4E8816E
:10244000F9810284F385E02DEDCF69017B018D01D7
:1024500086E090E00E94682F5C0186E0F501119211
:102460008A95E9F7B80161507109CE010E941509FA
:10247000D501CD92DD92ED92FC921397FC0124815F
:10248000358115963C932E931497B582A4828A8148
:102490009B8101969B838A831C8681E0DF91CF918B
:1024A0001F910F91FF90EF90DF90CF90BF90AF9072
:1024B0000895CF92DF92EF920F931F93CF93DF9304
:1024C000DC0112960D911C9113970115110569F409
:1024D000ED91FC910084F185E02DDF91CF911F916A
:1024E0000F91EF90DF90CF9009946A01E62EEC01F6
:1024F00085E090E00E94682F2C813D81FC013483AF
:102500002383C082D182E2829D838C830F5F1F4F21
:102510001B830A831C8681E0DF91CF911F910F916D
:10252000EF90DF90CF9008956F927F928F92EF920D
:10253000FF920F931F93CF93DF93DC011296ED91DF
:10254000FC9113976E177F078CF0ED91FC9100843E
:10255000F185E02D642FA901DF91CF911F910F919B
:10256000FF90EF908F907F906F90099461157105A7
:1025700031F4ED91FC910284F385E02DEBCF39012C
:10258000842E8B01EC0185E090E00E94682F7C0195
:1025900085E0F70111928A95E9F787E0D7018C93DE
:1025A000B80161507109CE010E94C308F701608231
:1025B00071828282DC0113962D913C9114973483B1
:1025C00023831496FC92EE9213978A819B81019645
:1025D0009B838A831C8681E0DF91CF911F910F91AD
:1025E000FF90EF908F907F906F900895EF92FF9201
:1025F0000F931F93CF93DF9300D000D000D0CDB7BF
:10260000DEB729833A834B835C836D837E83DC0151
:102610001296ED90FC901397E114F10491F4ED9172
:10262000FC910084F185E02D26960FB6F894DEBF6C
:102630000FBECDBFDF91CF911F910F91FF90EF9013
:1026400009948C0188E090E00E94682FF8012481B1
:102650003581DC0117963C932E93169726E0FE01F8
:10266000319601900D922A95E1F7F80195838483C4
:10267000FFEFEF1AFF0AD8011396FC92EE92129721
:102680001C961C9281E026960FB6F894DEBF0FBE12
:10269000CDBFDF91CF911F910F91FF90EF900895E3
:1026A0000F931F93CF93DF9300D000D000D0CDB70E
:1026B000DEB78C0129833A834B835C836D837E83F1
:1026C00088E090E00E94682F28E0DC011D922A95A6
:1026D000E9F726E0FE013196DC0101900D922A9582
:1026E000E1F7F80124813581232B11F10680F78170
:1026F000E02D97838683D80117969C938E93169727
:10270000D80112968D919C911397019613969C93E4
:102710008E9312971C961C9281E026960FB6F89421
:10272000DEBF0FBECDBFDF91CF911F910F910895F6
:102730009583848397838683E3CFCF92DF92EF9252
:10274000CF93DF93EC016A01E62E85E090E00E94D2
:10275000682F25E0FC0111922A95E9F7FC01C0825F
:10276000D182E2822C813D81232B99F0EE81FF8181
:10277000948383839F838E838A819B8101969B832D
:102780008A831C8681E0DF91CF91EF90DF90CF901C
:1027900008959D838C83EECFCF92DF92EF92FF92CC
:1027A000CF93DF93EC016A017B0186E090E00E9409
:1027B000682F26E0FC0111922A95E9F7FC01C082FE
:1027C000D182E282F3822C813D81232BA1F0EE8124
:1027D000FF81958384839F838E838A819B81019669
:1027E0009B838A831C8681E0DF91CF91FF90EF90DD
:1027F000DF90CF9008959D838C83EDCFFC01808185
:102800009181009711F00C94A62C60E070E0CB0150
:102810000895AF92BF92CF92DF92EF92FF920F9303
:102820001F93CF93DF93DC01CD90DC901197C114FF
:10283000D10439F01496CD91DC918C01760120976A
:1028400061F4DF91CF911F910F91FF90EF90DF9096
:10285000CF90BF90AF90089575015701BFEFAB1AAD
:10286000BB0AF7018081082E000C990B0E94322DC3
:10287000892B91F72197CC0DDD1D8881082E000C46
:10288000990B0E94322D892B29F0CE15DF0510F00F
:102890002197F3CFAE014F5F5F4F4E195F09D8010B
:1028A00015965C934E931497CE14DF0420F4B70171
:1028B000C6010E944A31D801ED91FC9111971496FE
:1028C0008D919C91E80FF91F1082BBCFCF93DF93BE
:1028D000FC01248135814217530788F4C081D181DE
:1028E000062E000C770BCE01840F951F0E945331EA
:1028F000009729F08C1B9D0BDF91CF9108958FEFEE
:102900009FEFFACFFC0124813581232B39F421E09C
:10291000FB018081882349F020E007C080819181FC
:102920000E945E3121E0892BB9F7822F08950F9321
:102930001F93CF93DF938C01EB01FC018081918188
:102940000097E1F06881798161157105A9F04281F4
:1029500053812C813D814217530770F00E946731EB
:102960008C819D81F801958384831D821C82DF9177
:10297000CF911F910F9108950E9404308881998111
:10298000F801918380838A819B81938382838C81E8
:102990009D8195838483198218821B821A82E5CFD8
:1029A0000F931F93CF93DF93EC0188819981009758
:1029B00059F02A813B812617370730F081E0DF91FB
:1029C000CF911F910F9108958B016F5F7F4F0E94F0
:1029D0008D30009759F0998388831B830A832C815B
:1029E0003D81232B59F7FC011082E8CF80E0E7CF2F
:1029F000EF92FF920F931F93CF93DF9361157105B1
:102A000041F480E0DF91CF911F910F91FF90EF9003
:102A1000089541155105B1F07B01EC010C811D8138
:102A2000040F151FB8010E94D014882351F3288188
:102A300039818C819D81B701820F931F0E9467317C
:102A40001D830C8381E0DECFEF92FF920F931F93E3
:102A5000CF93DF93CDB7DEB72D970FB6F894DEBFD7
:102A60000FBECDBF7C01CB01BA012AE08E010F5F02
:102A70001F4FA8010E94F62CF80101900020E9F7F1
:102A80003197AF01401B510BB801C7010E94F814E8
:102A9000811103C0C7010E94830DC7012D960FB697
:102AA000F894DEBF0FBECDBFDF91CF911F910F9184
:102AB000FF90EF900895EF92FF920F931F93CF93A3
:102AC000DF9300D000D000D01F92CDB7DEB77C01DD
:102AD000CB014AE08E010F5F1F4FB8010E94182DF5
:102AE000F80101900020E9F73197AF01401B510B2D
:102AF000B801C7010E94F814811103C0C7010E94E8
:102B0000830DC70127960FB6F894DEBF0FBECDBF69
:102B1000DF91CF911F910F91FF90EF900895EF9269
:102B2000FF920F931F93CF93DF93CDB7DEB7289714
:102B30000FB6F894DEBF0FBECDBF7C01CB014AE0DB
:102B40008E010F5F1F4FB8010E94D62CF801019033
:102B50000020E9F73197AF01401B510BB801C701C5
:102B60000E94F814811103C0C7010E94830DC701A0
:102B700028960FB6F894DEBF0FBECDBFDF91CF9180
:102B80001F910F91FF90EF900895EF92FF920F9396
:102B90001F93CF93DF9300D000D0CDB7DEB77C0179
:102BA000862F4AE08E010F5F1F4FB80190E00E9410
:102BB000D62CF80101900020E9F73197AF01401BB6
:102BC000510BB801C7010E94F814811103C0C7015D
:102BD0000E94830DC7010F900F900F900F90DF910F
:102BE000CF911F910F91FF90EF900895CF93DF93B6
:102BF000EC016115710539F4CE010E94830DCE01FF
:102C0000DF91CF910895FB0101900020E9F7319702
:102C1000AF01461B570B0E94F814882369F3EFCFCE
:102C2000CF93DF93EC01FB01448155816081718179
:102C30000E94F814811103C0CE010E94830DCE01C1
:102C4000DF91CF910895EF92FF920F931F93CF934F
:102C5000DF93EC017B018A01BA010E94D01481113B
:102C60000BC0CE010E94830DCE01DF91CF911F9149
:102C70000F91FF90EF9008951D830C83B701888119
:102C800099810E946731F0CFFB0101900020E9F7A4
:102C90003197AF01461B570B0C9423160F931F93CC
:102CA000CF93DF93CDB7DEB7A1970FB6F894DEBF11
:102CB0000FBECDBF8C01CB01BA01F8011182108289
:102CC00013821282158214822AE0AE014F5F5F4F99
:102CD0000E94F62CBE016F5F7F4FC8010E94441610
:102CE000A1960FB6F894DEBF0FBECDBFDF91CF9196
:102CF0001F910F910895FB01DC0111961C921E9209
:102D000013961C921E92129715961C921E9214975F
:102D10008617970749F0608171816115710521F06F
:102D2000448155810C9423160895FC011182108270
:102D300013821282158214826115710551F0FB0114
:102D400001900020E9F73197AF01461B570B0C9417
:102D5000231608950F931F93CF93DF9300D0CDB721
:102D6000DEB78C016DE472E00E9495160E94E401CA
:102D700097FD0EC08D30910559F089831A8241E08C
:102D800050E0BE016F5F7F4FC8010E94F814EECF84
:102D9000C8010F900F90DF91CF911F910F9108956F
:102DA000AF92BF92CF92DF92EF92FF920F931F9359
:102DB000CF93DF936C015B017A01890124173507FA
:102DC00020F48F2D7901042F182F6DE472E0C601D5
:102DD0000E949516D5011496CD91DC91EC16FD0656
:102DE000E0F40C171D0708F4E801D501ED91FC9102
:102DF0001197EC0FFD1F108110826D917C916E0D6B
:102E00007F1DC60161157105A1F00E944416F501F0
:102E100080819181C80FD91F1883C601DF91CF919E
:102E20001F910F91FF90EF90DF90CF90BF90AF90E8
:102E300008950E94830DEBCF8F929F92AF92BF9225
:102E4000CF92DF92EF92FF920F931F93CF93DF9376
:102E5000CDB7DEB72C970FB6F894DEBF0FBECDBF4F
:102E60008C014A015B01FC0180819181BC016056AB
:102E70007E4FCE0101960E949516CE0101960E94CA
:102E80005B0DCE0101960E94950D8091EB0490910F
:102E9000EC04A091ED04B091EE04A5019401281B6F
:102EA000390B4A0B5B0BCA01B901653C3FEF730755
:102EB000830793070CF457C02CE330E040E050E068
:102EC0000E943C2FCA01B9010E944D2D20E030E044
:102ED00040E05FE30E94442E0E94B02E6B017C0113
:102EE000F8016083D182982F9F7782818078892B27
:102EF000828360EA71E0CE0101960E949516BE01C0
:102F00006F5F7F4FCE0107960E947B16B701A60127
:102F10006F777727CE0107960E9424156CEB71E03E
:102F20000E94F615B501A4010E9424150E945B0DB4
:102F3000CE0107960E94950DCE0101960E94950D37
:102F40002C960FB6F894DEBF0FBECDBFDF91CF91A8
:102F50001F910F91FF90EF90DF90CF90BF90AF90B7
:102F60009F908F9008952CE330E040E050E00E9465
:102F70003C2FCA01B9010E944D2D20E030E040E015
:102F80005FE30E94432EA8CF85ED8093BC00809123
:102F9000F3039091F403A091F503B091F603079623
:102FA000A11DB11D23E0B695A795979587952A9504
:102FB000D1F72091BC0024FD03C01092F1030895C5
:102FC0004091F3035091F4036091F5037091F6037F
:102FD000452B462B472B69F30097A105B10541F01E
:102FE0002AE22A95F1F700C00197A109B109E1CFC2
:102FF0008091F2030C942603FF920F931F93CF93BB
:10300000DF93EC01F62E08811981C8010E94DC2DA6
:10301000F81621F06F2DC8010E94E42DCE01DF913A
:10302000CF911F910F91FF900895CF92DF92EF9271
:10303000FF920F931F93CF93DF9300D0CDB7DEB7EE
:103040006C017C010CE010E01A830983F7016191A7
:103050007F01CE0101960E94FC170F5F1F4F0031C8
:10306000110591F7C6010F900F90DF91CF911F913D
:103070000F91FF90EF90DF90CF900895EF92FF9225
:103080000F931F93CF93DF9300D0CDB7DEB78C01A2
:103090007B019A838983FB016081CE0101960E94A6
:1030A000FC170F5F1F4F1A830983F7016181CE015F
:1030B00001960E94FC17C7010F900F90DF91CF91EE
:1030C0001F910F91FF90EF9008952F923F924F9292
:1030D0005F926F927F928F929F92AF92BF92CF92A8
:1030E000DF92EF92FF920F931F93CF93DF93CDB7B1
:1030F000DEB7C254D1090FB6F894DEBF0FBECDBF04
:10310000F12C8E010F5F1F4F3E0122E2620E711CF7
:1031100084ED91E00E94690DCE01CA960E94AA1624
:103120006CEE71E0C8010E949516B801C3010E94BF
:103130007B16BE01665C7F4FC3010E9410160E9481
:103140005B0DC3010E94950DC8010E94950D65EFAE
:1031500071E0C8010E9495162D813E818EAD9FAD14
:103160002817390711F589819A816AAD7BAD0097DF
:1031700059F06115710509F07CC0232B09F47CC05E
:10318000FC01808190E00DC06115710509F474C0E7
:10319000232B09F471C0DB018C9190E0919581950E
:1031A0009109CC24C394892B09F0C12CC8010E9439
:1031B000950DCC2011F40C94F4238BEF91E00E9438
:1031C000690D58EB252E5BE0352E412C512C2092B9
:1031D0001F04309220044092210450922204C8011E
:1031E0000E94AA16B801CE01CA960E949714C8017F
:1031F0000E94950D6CEE71E0C8010E949516B80111
:10320000C3010E947B16BE01665C7F4FC3010E9412
:1032100010160E945B0DC3010E94950DC8010E940B
:10322000950DCE01CA960E94091488EE93E0A0E0A5
:10323000B0E080931F0490932004A0932104B093E6
:103240002204CE01CA960E94FE13673071058105E3
:10325000910510F00C941E23FB01EE5CF64EC801A4
:103260000C945B2F3F190D1C821C761FCE20412130
:103270002F230E945E3195CFCC24C39497CF0E9418
:10328000AA16B801CE01CA960E949714C8010E94DE
:10329000950D6CEE71E0C8010E949516B801C3014E
:1032A0000E947B16BE01665C7F4FC3010E94101610
:1032B0000E945B0DC3010E94950DC8010E94950DEF
:1032C000CE01CA960E94091465E072E0CE01CA964A
:1032D0000E948214882309F4BFC0C8010E94AA1664
:1032E000B801CE01CA960E949714C8010E94950D9C
:1032F0006CEE71E0C8010E949516B801C3010E94EE
:103300007B16BE01665C7F4FC3010E9410160E94AF
:103310005B0DC3010E94950DC8010E94950DCE0161
:10332000CA960E940914B12CA12CF12CE12C470162
:10333000A7016BE3CE01CA960E9466147C019C0132
:10334000A401BE01665C7F4FC8010E94D016A11483
:10335000B10409F059C0C8010E94FE13AB01BC01C1
:10336000CE0188960E941C17BFEFAB1ABB0AEFEF85
:10337000EE16FE0619F0FFEFEF1AFF0AC8010E94D1
:10338000950D2FEFE216F20691F6C8010E94AA16DB
:10339000B801CE01CA960E949714C8010E94950DEB
:1033A0006CEE71E0C8010E949516B801C3010E943D
:1033B0007B16BE01665C7F4FC3010E9410160E94FF
:1033C0005B0DC3010E94950DC8010E94950DCE01B1
:1033D000CA960E9409146DE072E0CE01CA960E945E
:1033E0008214882309F479C333E0A316B10409F0E9
:1033F00074C348A559A56AA57BA58EED94E00E94EB
:10340000CC1384E192E06BC391E0A916B10489F476
:10341000C8010E94FE132AA560FB27F92AA79695EA
:103420008795779567956F708BA5807F682B6BA7C5
:103430009BCFA2E0AA16B10409F096CFC8010E9462
:10344000FE1321E0672B682B692B09F420E08BA584
:1034500020FB84F98BA788CF69EE72E0CE01CA9673
:103460000E948214882309F4FFC0C8010E94AA1692
:10347000B801CE01CA960E949714C8010E94950D0A
:103480006CEE71E0C8010E949516B801C3010E945C
:103490007B16BE01665C7F4FC3010E9410160E941E
:1034A0005B0DC3010E94950DC8010E94950DCE01D0
:1034B000CA960E94091437E0232EB12CA12CF12CBE
:1034C000E12C4701A7016BE3CE01CA960E94661466
:1034D0007C019C01A401BE01665C7F4FC8010E9473
:1034E000D016A114B10409F053C0C8010E94FE1304
:1034F000262E3FEFA31AB30A8FEFE816F80619F04D
:103500009FEFE91AF90AC8010E94950DAFEFEA167C
:10351000FA06B9F6C8010E94AA16B801CE01CA96E9
:103520000E949714C8010E94950D6CEE71E0C801CD
:103530000E949516B801C3010E947B16BE01665C0D
:103540007F4FC3010E9410160E945B0DC3010E94B1
:10355000950DC8010E94950DCE01CA960E940914CE
:103560006DE072E0CE01CA960E948214882309F4AD
:10357000B4C2B3E0AB16B10409F0AFC2422D23963A
:103580005FAD23976D2D81ED94E00E949D1339CF9F
:1035900081E0A816B104C1F550E040E06AE3C8013B
:1035A0000E9466144C012D813E81AC01B801CE0110
:1035B00088960E94D016CE0188960E94FE13362E61
:1035C000940150E040E0B801C3010E94D016C3014D
:1035D0000E94FE136F7123969FAD2397907E592E04
:1035E000562A23965FAE2397A32DAF733A2E330C42
:1035F000BD2DB178DB2ED328C3010E94950DCE01DD
:1036000088960E94950D75CFE2E0AE16B104D1F414
:10361000C8010E94FE13262F2295220F207E23969A
:10362000FFAD2397FF715F2E522A23965FAE23973B
:1036300023E096958795779567952A95D1F760FB56
:10364000D0F857CF23E0A216B10409F052CFC80139
:103650000E94FE13672B682B692B19F06894D7F82A
:1036600048CFE894D7F845CF6CE172E0CE01CA9616
:103670000E948214882309F430C2C8010E94AA164D
:10368000B801CE01CA960E949714C8010E94950DF8
:103690006CEE71E0C8010E949516B801C3010E944A
:1036A0007B16BE01665C7F4FC3010E9410160E940C
:1036B0005B0DC3010E94950DC8010E94950DCE01BE
:1036C000CA960E9409141EA2E1E0EFA3B12CA12C1E
:1036D000F12CE12C4701A7016BE3CE01CA960E94B1
:1036E00066147C019C01A401BE01665C7F4FC80189
:1036F0000E94D016A114B10409F05BC0C8010E9459
:10370000FE13AB01BC01C3010E946E0A9FEFA91A10
:10371000B90AAFEFEA16FA0619F0BFEFEB1AFB0A87
:10372000C8010E94950DEFEFEE16FE0699F6C8014E
:103730000E94AA16B801CE01CA960E949714C80129
:103740000E94950D6CEE71E0C8010E949516B801BB
:10375000CE0188960E947B16BE01665C7F4FCE012B
:1037600088960E9410160E945B0DCE0188960E94DA
:10377000950DC8010E94950DCE01CA960E940914AC
:103780006DE072E0CE01CA960E948214882309F48B
:10379000A4C1F3E0AF16B10409F09FC12AA13BA177
:1037A0004CA15DA16EA17FA184EC94E00E94501316
:1037B00028CEF1E0AF16B10429F4C8010E94FE132F
:1037C0006EA3A4CF22E0A216B10429F4C8010E947E
:1037D000FE136FA39BCF33E0A316B10451F4C801CD
:1037E0000E94FE13862F8F706DA1607F682B6DA3E2
:1037F0008DCF84E0A816B10409F088CFC8010E94DB
:10380000FE132CA1672B682B692B21F0822F806877
:103810008CA37CCF822F8F77FBCF0E94AA16B80192
:10382000CE01CA960E949714C8010E94950D6CEEB5
:1038300071E0C8010E949516B801C3010E947B1671
:10384000BE01665C7F4FC3010E9410160E945B0D93
:10385000C3010E94950DC8010E94950DCE01CA9624
:103860000E940914C8010E94AA16CE01CA960E949D
:10387000091465E072E0CE01CA960E948214882382
:1038800051F0C8010E94FE138EED94E00E94E410F6
:1038900084E192E028C069EE72E0CE01CA960E94EF
:1038A0008214882341F0C8010E94FE1381ED94E048
:1038B0000E949310EDCF6AE272E0CE01CA960E9498
:1038C0008214882371F0C8010E94FE1384EC94E0F6
:1038D0000E9412102CAB3DAB4EAB5FAB68AF79AF23
:1038E000D7CF84E392E00E94690DC8010E94950D34
:1038F00084E792E00E94690DCE01CA960E94950D60
:10390000FC2C06CC0E94AA16B801CE01CA960E94D1
:103910009714C8010E94950D6CEE71E0C8010E94D9
:103920009516B801C3010E947B16BE01665C7F4FED
:10393000C3010E9410160E945B0DC3010E94950DE9
:10394000C8010E94950DCE01CA960E94091465E037
:1039500072E0CE01CA960E948214882309F4EAC05C
:10396000C8010E94AA16B801CE01CA960E949714F7
:10397000C8010E94950D6CEE71E0C8010E94951679
:10398000B801C3010E947B16BE01665C7F4FC30174
:103990000E9410160E945B0DC3010E94950DC80184
:1039A0000E94950DCE01CA960E940914CE01CA96B6
:1039B0000E94FE138EED94E00E94A70968A779A7E4
:1039C0008AA79BA7C8010E94AA16B801CE01CA9671
:1039D0000E949714C8010E94950D6CEE71E0C80119
:1039E0000E949516B801C3010E947B16BE01665C59
:1039F0007F4FC3010E9410160E945B0DC3010E94FD
:103A0000950DC8010E94950DCE01CA960E94091419
:103A1000B12CA12CF12CE12C4701A7016BE3CE01C5
:103A2000CA960E9466147C019C01A401BE01665CDA
:103A30007F4FC8010E94D016A114B10409F052C0F2
:103A4000C8010E94FE13AB01BC01CE0188960E9402
:103A50001C178FEFA81AB80A9FEFE916F90619F09C
:103A6000AFEFEA1AFA0AC8010E94950DBFEFEB16F4
:103A7000FB0691F6C8010E94AA16B801CE01CA96AB
:103A80000E949714C8010E94950D6CEE71E0C80168
:103A90000E949516B801C3010E947B16BE01665CA8
:103AA0007F4FC3010E9410160E945B0DC3010E944C
:103AB000950DC8010E94950DCE01CA960E94091469
:103AC0006DE072E0CE01CA960E948214882329F02C
:103AD000E3E0AE16B10409F494CC85E292E00E94D2
:103AE000690D06CF21E0A216B10489F4C8010E9435
:103AF000FE132AA560FB27F92AA796958795779547
:103B000067956F708BA5807F682B6BA7A2CF32E083
:103B1000A316B10409F09DCFC8010E94FE1321E055
:103B2000672B682B692B09F420E08BA520FB84F917
:103B30008BA78FCF69EE72E0CE01CA960E948214E5
:103B4000882309F4D0C0C8010E94AA16B801CE018A
:103B5000CA960E949714C8010E94950D6CEE71E000
:103B6000C8010E949516B801C3010E947B16BE01D0
:103B7000665C7F4FC3010E9410160E945B0DC3015B
:103B80000E94950DC8010E94950DCE01CA960E9413
:103B90000914CE01CA960E94FE1381ED94E00E94A2
:103BA0009A09C8010E94AA16B801CE01CA960E94BD
:103BB0009714C8010E94950D6CEE71E0C8010E9437
:103BC0009516B801C3010E947B16BE01665C7F4F4B
:103BD000C3010E9410160E945B0DC3010E94950D47
:103BE000C8010E94950DCE01CA960E940914B12CFD
:103BF000A12CF12CE12C4701A7016BE3CE01CA9661
:103C00000E9466147C019C01A401BE01665C7F4F8A
:103C1000C8010E94D016F1E0AF16B104E9F450E0FB
:103C200040E06AE3C8010E9466144C012D813E8188
:103C3000AC01B801CE0188960E94D016940150E0E4
:103C400040E0B801C3010E94D016C3010E94950D47
:103C5000CE0188960E94950D2FEFA21AB20A3FEF6F
:103C6000E316F30619F08FEFE81AF80AC8010E946C
:103C7000950D9FEFE916F90609F0BDCFC8010E9426
:103C8000AA16B801CE01CA960E949714C8010E94D4
:103C9000950D6CEE71E0C8010E949516B801C30144
:103CA0000E947B16BE01665C7F4FC3010E94101606
:103CB0000E945B0DC3010E94950DC8010E94950DE5
:103CC000CE01CA960E9409146DE072E0CE01CA9638
:103CD0000E948214882309F400CFA3E0AA16B1043D
:103CE00009F0FBCE8ECB6CE172E0CE01CA960E9449
:103CF0008214882309F4F1CEC8010E94AA16B801E3
:103D0000CE01CA960E949714C8010E94950D6CEED0
:103D100071E0C8010E949516B801C3010E947B168C
:103D2000BE01665C7F4FC3010E9410160E945B0DAE
:103D3000C3010E94950DC8010E94950DCE01CA963F
:103D40000E940914CE01CA960E94FE1384EC94E0EE
:103D50000E946A092AA33BA34CA35DA36EA37FA381
:103D6000C8010E94AA16B801CE01CA960E949714F3
:103D7000C8010E94950D6CEE71E0C8010E94951675
:103D8000B801CE0188960E947B16BE01665C7F4F0B
:103D9000CE0188960E9410160E945B0DCE01889677
:103DA0000E94950DC8010E94950DCE01CA960E94F1
:103DB0000914B12CA12CF12CE12C4701A7016BE3D4
:103DC000CE01CA960E9466147C019C01A401BE012A
:103DD000665C7F4FC8010E94D016A114B10409F09F
:103DE00051C0C8010E94FE13AB01BC01C3010E9477
:103DF0006E0A3FEFA31AB30A8FEFE816F80619F020
:103E00009FEFE91AF90AC8010E94950DAFEFEA1673
:103E1000FA0699F6C8010E94AA16B801CE01CA9600
:103E20000E949714C8010E94950D6CEE71E0C801C4
:103E30000E949516B801CE0188960E947B16BE019D
:103E4000665C7F4FCE0188960E9410160E945B0D23
:103E5000CE0188960E94950DC8010E94950DCE0155
:103E6000CA960E9409146DE072E0CE01CA960E94C3
:103E70008214882309F431CEB3E0AB16B10409F003
:103E80002CCE8CCCB1E0AB16B10429F4C8010E9451
:103E9000FE136EA3AECFE2E0AE16B10429F4C80162
:103EA0000E94FE136FA3A5CFF3E0AF16B10451F447
:103EB000C8010E94FE13862F8F706DA1607F682B52
:103EC0006DA397CF24E0A216B10409F092CFC801E8
:103ED0000E94FE132CA1672B682B692B21F0822FE7
:103EE00080688CA386CF822F8F77FBCF0E94AA1683
:103EF000B801CE01CA960E949714C8010E94950D80
:103F00006CEE71E0C8010E949516B801C3010E94D1
:103F10007B16BE01665C7F4FC3010E9410160E9493
:103F20005B0DC3010E94950DC8010E94950DCE0145
:103F3000CA960E94091465E072E0CE01CA960E94FA
:103F40008214882309F456C0B12CA12C8091E0047E
:103F50009091E104A816B9060CF053CAB5018EED94
:103F600094E00E94A70994FB992490F8282F221F1F
:103F70002227221F9F70E92EEE0CE22AF12C9B01D2
:103F8000482F4F7750E0ACE3B0E00E94F22D209133
:103F9000EB043091EC044091ED045091EE041B01D0
:103FA0002C01220E331E441E551EB201A101C80170
:103FB0000E944E16B801C3010E947B166BE372E0AB
:103FC000C3010E94F615B7010E945B156BE372E016
:103FD0000E94F615692D70E00E948F150E945B0DFE
:103FE000C3010E94950DC8010E94950D2FEFA21AE2
:103FF000B20AACCF69EE72E0CE01CA960E9482147A
:10400000882309F469C0B12CA12C8091D30490912C
:10401000D404A816B9060CF0F4C9B50181ED94E0FA
:104020000E949A09962F282F082E000C330B332E4E
:10403000331C3324331C272F229526952770382FC5
:104040003170E32EEE0CEE0CEE0CE22AF12C982EE1
:104050009694892D8F73982E7F71872E1BA21AA29A
:104060001DA21CA21FA21EA24AE0B801892F90E047
:104070000E94182DB801C3010E944416B301C80163
:104080000E947B166BE372E0C8010E94F615682D52
:104090000E94C5156DE372E00E94F615692D0E941D
:1040A000C5156BE372E00E94F615B7010E945B151F
:1040B0006BE372E00E94F615632D70E00E948F158D
:1040C0000E945B0DC8010E94950DC3010E94950DD1
:1040D0009FEFA91AB90A99CF6CE172E0CE01CA9696
:1040E0000E948214882309F4A9C2B12CA12C8091CA
:1040F000C6049091C704A816B9060CF082C9B50190
:1041000084EC94E00E946A0929833A834B835C83A0
:104110006D837E83472E512C262E312C47FB44275E
:1041200040F9842E912C5F70E52EF12CC8010E947D
:10413000A60AAB01BC01C3010E944E16B301CE0119
:1041400088960E947B166BE372E0CE0188960E94EF
:10415000F615B7010E945B156BE372E00E94F6153D
:10416000B4010E948F156BE372E00E94F615B10155
:104170000E945B156BE372E00E94F615B2010E948B
:104180005B150E945B0DCE0188960E94950DC301C0
:104190000E94950DAFEFAA1ABA0AA9CF0E94AA16DB
:1041A000B801CE01CA960E949714C8010E94950DCD
:1041B0006CEE71E0C8010E949516B801C3010E941F
:1041C0007B16BE01665C7F4FC3010E9410160E94E1
:1041D0005B0DC3010E94950DC8010E94950DCE0193
:1041E000CA960E940914CE01CA960E94FE13FB01D2
:1041F000EE0FFF1FE60FF71FEE58FC4F80819181F5
:10420000A28188A799A7AAA7C8010E94AA16B801E7
:10421000CE01CA960E949714C8010E94950D6CEEBB
:1042200071E0C8010E949516B801C3010E947B1677
:10423000BE01665C7F4FC3010E9410160E945B0D99
:10424000C3010E94950DC8010E94950DCE01CA962A
:104250000E940914CE01CA960E94FE1321E0672B2A
:10426000682B692B09F420E08AA520FB87F98AA72F
:104270000E941A0DAB01BC01CE0188960E94280A4B
:1042800037CB0E94AA16B801CE01CA960E94971495
:10429000C8010E94950D6CEE71E0C8010E94951650
:1042A000B801C3010E947B16BE01665C7F4FC3014B
:1042B0000E9410160E945B0DC3010E94950DC8015B
:1042C0000E94950DCE01CA960E9409146FE372E018
:1042D000CE01CA960E948214882309F4A0C061E02E
:1042E00084E00E94C60083E492E00E944E0DC30168
:1042F0000E94AA16C3010E9409148EA19FA1892BB6
:1043000051F4C8010E94AA16B801C3010E94971473
:10431000C8010E94950DC3010E94091460E084E069
:104320000E94C600EEA0FFA0E114F10409F46DC0E4
:1043300050E040E06AE3C3010E9466149701AC01BB
:10434000B301C8010E94D016E980FA80C8010E941A
:10435000950DC3010E94950D61E084E00E94C600A6
:104360008EE492E00E944E0DC3010E94AA16C30182
:104370000E9409148EA19FA1892B51F4C8010E94AB
:10438000AA16B801C3010E949714C8010E94950D96
:10439000C3010E94091460E084E00E94C600AEA040
:1043A000BFA0A114B104B1F150E040E06AE3C30141
:1043B0000E9466149501AC01B301C8010E94D01699
:1043C000A980BA80C8010E94950DC3010E94950D75
:1043D000B501C8010E949516B801C3010E947B1661
:1043E0006BE372E0C3010E94F615B7010E94F61557
:1043F000FC01808191810E94690DC3010E94950D8D
:10440000C8010E94950D0C94011A5CECE52E51E058
:10441000F52E9FCF4CECA42E41E0B42ED6CF60E712
:1044200072E0CE01CA960E948214882309F40BC15F
:10443000C8010E94AA16B801CE01CA960E9497141C
:10444000C8010E94950D6CEE71E0C8010E9495169E
:10445000B801C3010E947B16BE01665C7F4FC30199
:104460000E9410160E945B0DC3010E94950DC801A9
:104470000E94950DCE01CA960E94091450E040E0BA
:104480006BE3CE01CA960E9466147C01C8010E94AB
:10449000AA16B801CE01CA960E949714C8010E94BC
:1044A000950D6CEE71E0C8010E949516B801C3012C
:1044B0000E947B16BE01665C7F4FC3010E941016EE
:1044C0000E945B0DC3010E94950DC8010E94950DCD
:1044D0006DE072E0CE01CA960E948214882309F42E
:1044E000ADC0970150E040E0BE01665C7F4FCE0159
:1044F0008E960E94D016AEA4BFA461E084E00E9414
:10450000C60069E572E0C3010E949516B301C801B7
:104510000E947B16B501C8010E94F6156BE472E09B
:104520000E94F6150E94B801C8010E94950DC301B2
:104530000E94950DC3010E94AA16C3010E9409148E
:104540008EA19FA1892B51F4C8010E94AA16B8011F
:10455000C3010E949714C8010E94950DC3010E94D7
:10456000091460E084E00E94C60062E672E0C301C4
:104570000E948214B82EC3010E94950DBB2009F43D
:1045800060C02EAD3FADA701BE01665C7F4FCE017E
:1045900088960E94D016E8A4F9A461E084E00E9405
:1045A000C60065E672E0C3010E949516B301C8011A
:1045B0000E947B16B701C8010E94F6156BE472E0F9
:1045C0000E94F6150E94B801C8010E94950DC30112
:1045D0000E94950DC3010E94AA16C3010E940914EE
:1045E0008EA19FA1892B51F4C8010E94AA16B8017F
:1045F000C3010E949714C8010E94950DC3010E9437
:10460000091460E084E00E94C60062E672E0C30123
:104610000E948214E82EC3010E94950DFF24F3949A
:10462000E110F12CCE0188960E94950DCE018E9658
:104630000E94950DFF2011F40C94011A84E392E07E
:104640004ECAFC2CF3CF6EE672E0CE01CA960E94F1
:104650008214882399F30E947B0D0C94011A0E9406
:10466000AA16B801CE01CA960E949714C8010E94EA
:10467000950D6CEE71E0C8010E949516B801C3015A
:104680000E947B16BE01665C7F4FC3010E9410161C
:104690000E945B0DC3010E94950DC8010E94950DFB
:1046A000CE01CA960E9409146FE372E0CE01CA9649
:1046B0000E948214882321F10E941A0D9B01AC01F3
:1046C00019A27E01F1E2EF0EF11CCA01B9012AE044
:1046D00030E040E050E00E941A2F605DD7016E93F9
:1046E0007D01211531054105510579F7109719F024
:1046F000CD010E944E0D8BE492E00E944E0D9ECFA4
:1047000060E772E0CE01CA960E948214882309F401
:1047100095CFC8010E94AA16B801CE01CA960E9480
:104720009714C8010E94950D6CEE71E0C8010E94BB
:104730009516B801C3010E947B16BE01665C7F4FCF
:10474000C3010E9410160E945B0DC3010E94950DCB
:10475000C8010E94950DCE01CA960E940914CE018F
:10476000CA960E94FE134B015C01C8010E94AA1662
:10477000B801CE01CA960E949714C8010E94950DF7
:104780006CEE71E0C8010E949516B801C3010E9449
:104790007B16BE01665C7F4FC3010E9410160E940B
:1047A0005B0DC3010E94950DC8010E94950D6DE03F
:1047B00072E0CE01CA960E948214882309F43ECF8B
:1047C000B501A401662777278091A5039091A603E0
:1047D000480F591F611D711DC8010E948005C80145
:1047E0000E94EF0B0C94011AFF2009F401C1E3EEC3
:1047F000F0E08491EFECF0E0E490EBEBF0E0F4908B
:10480000FF2009F4F5C081110E949D00EF2DF0E01A
:10481000EE0FFF1FE859FF4FA591B491EC91EE22E6
:1048200009F4E6C081E090E0A0E0B0E088A799A795
:10483000AAA7BBA7CE0188960E9415188091E00414
:104840009091E1049A838983B80190E080E00E940E
:104850003E1880E190E06C01C618D708B12CA12C5D
:104860004301B4E08B0E911C7301EC0CFD1C809194
:10487000E0049091E104A816B906FCF4B5018EEDB0
:1048800094E00E94A7096AA37BA38CA39DA3730154
:10489000C6018E0D9F1D9A838983F70161917F0167
:1048A000C8010E94FC17E814F90491F7FFEFAF1A52
:1048B000BF0A24E0C20ED11CD7CF8091D3049091BF
:1048C000D4049A838983B80184E090E00E943E1862
:1048D000D12CC12C8091D3049091D404C816D90650
:1048E0003CF5B60181ED94E00E949A0969837A83D0
:1048F0008B83FFA6EEA6CE018E960E94FC17C70101
:1049000001969FA78EA76A81CE018E960E94FC1702
:10491000C70102969FA78EA76B81CE018E960E943B
:10492000FC1733E0E30EF11C8FEFC81AD80AD2CF80
:104930008091C6049091C7049A838983B80188E066
:1049400090E00E943E18E01AF10AD12CC12C4801D7
:1049500096E0890E911CC8018E0D9F1D2091C60402
:104960003091C704C216D30614F5B60184EC94E066
:104970000E946A0929833A834B835C836D837E831B
:104980005801C7018A0D9B1D9FA78EA7D5016D9168
:104990005D01CE018E960E94FC178A149B0489F754
:1049A000BFEFCB1ADB0AE6E0EE0EF11CD4CF2CE908
:1049B000C22E23E0D22E02E713E09C01225733409F
:1049C0007901C701800F911F9FA78EA7D8016D9114
:1049D0008D01CE018E960E94FC17C016D10689F774
:1049E00018A619A61AA61BA6CE0188960E9415180D
:1049F000CE01CA960E94950DCE5BDF4F0FB6F8949C
:104A0000DEBF0FBECDBFDF91CF911F910F91FF9001
:104A1000EF90DF90CF90BF90AF909F908F907F905E
:104A20006F905F904F903F902F9008951F920F923C
:104A30000FB60F9211242F933F938F939F93AF93B1
:104A4000BF938091A1039091A203A091A303B09181
:104A5000A40330919C0323E0230F2D3758F50196D2
:104A6000A11DB11D20939C038093A1039093A203E9
:104A7000A093A303B093A40380919D0390919E0300
:104A8000A0919F03B091A0030196A11DB11D809339
:104A90009D0390939E03A0939F03B093A003BF91A7
:104AA000AF919F918F913F912F910F900FBE0F90DB
:104AB0001F90189526E8230F0296A11DB11DD2CF95
:104AC0001F920F920FB60F9211242F933F934F9383
:104AD0005F936F937F938F939F93AF93BF93EF9366
:104AE000FF93E0910201F09103010995FF91EF918D
:104AF000BF91AF919F918F917F916F915F914F91F6
:104B00003F912F910F900FBE0F901F9018951F92FD
:104B10000F920FB60F9211242F933F934F935F93F1
:104B20006F937F938F939F93AF93BF93EF93FF9375
:104B3000E0910001F09101010995FF91EF91BF9182
:104B4000AF919F918F917F916F915F914F913F9125
:104B50002F910F900FBE0F901F9018951F920F92DC
:104B60000FB60F9211242F933F934F935F936F9340
:104B70007F938F939F93AF93BF93EF93FF938BE1BB
:104B800094E00E945202FF91EF91BF91AF919F91EB
:104B90008F917F916F915F914F913F912F910F90E6
:104BA0000FBE0F901F9018951F920F920FB60F9285
:104BB00011242F938F939F93EF93FF93E0912B04F6
:104BC000F0912C048081E0913104F091320482FD57
:104BD0001BC09081809134048F5F8F7320913504C6
:104BE000821741F0E0913404F0E0E55EFB4F958FD1
:104BF00080933404FF91EF919F918F912F910F90AB
:104C00000FBE0F901F9018958081F4CF1F920F92C6
:104C10000FB60F9211240F900FBE0F901F90189592
:104C20001F920F920FB60F9211242F933F934F9321
:104C30005F936F937F938F939F93AF93BF93EF9304
:104C4000FF938091B900887F803609F44AC0F0F55F
:104C5000883209F4A7C018F5803109F49BC0B8F474
:104C6000882309F4F9C0883009F494C0FF91EF91CA
:104C7000BF91AF919F918F917F916F915F914F9174
:104C80003F912F910F900FBE0F901F901895883174
:104C900009F488C0803251F78093EF0314C0803448
:104CA00009F49DC040F48033B9F38833F9F680935A
:104CB000EF0385ECB0C0803509F485C0883509F470
:104CC00096C0883499F60E94C417D0CF883909F469
:104CD0008CC038F5883729F050F4883611F08037C9
:104CE00029F683E08093F10310926B0357C0883854
:104CF00009F47BC0803919F0803809F0B7CF809172
:104D00006B03803208F071C0E0916B0381E08E0F7D
:104D100080936B038091BB00F0E0E55BFC4F8083E8
:104D20003DC0803B39F0E0F4803A09F479C0883A1C
:104D300009F09CCF84E08093F10310924A03109213
:104D40004903E0917003F091710309958091490343
:104D500081110FC081E0809349031092290309C09B
:104D6000803C09F4A6CF883C09F4A3CF883B09F026
:104D70007DCFE0914A0381E08E0F80934A03F0E0FB
:104D8000E75DFC4F80818093BB0090914A03809146
:104D9000490329C08091CC038093BB0085EC8093AC
:104DA000BC0064CF9091EE038091ED03981758F505
:104DB000E091EE0381E08E0F8093EE03F0E0E35389
:104DC000FC4F8081E9CFE091EE0381E08E0F80936C
:104DD000EE038091BB00F0E0E353FC4F80839091A1
:104DE000EE038091ED039817C8F285E8D8CFE091E3
:104DF000EE0381E08E0F8093EE038091BB00F0E024
:104E0000E353FC4F80838091F00381115CCF81E0FC
:104E10008093CB0384EA8093BC001092F10326CFE9
:104E200085EC8093BC001092F10380916B0380327B
:104E300030F4E0916B03F0E0E55BFC4F1082609191
:104E40006B0370E0E0916E03F0916F038BE493E0ED
:104E5000099510926B030ACF1092EF0334CFFC0137
:104E6000908190539A3008F090E0818180532AE03D
:104E7000929F800D11240895CF93DF9300D000D02E
:104E800000D0CDB7DEB7EBE1F4E01382128288EEFA
:104E900093E0A0E0B0E084839583A683B7832CE100
:104EA00031E03183208325EC30E03587248724EC02
:104EB00030E03787268720EC30E0318B208B21ECE7
:104EC00030E0338B228B22EC30E0358B248B26ECC8
:104ED00030E0378B268B118E128E138E148EE8EBFA
:104EE000F4E01382128284839583A683B7838EE2D3
:104EF00091E09183808384E189831A8281E08B83AE
:104F00001C821D821E82CE0101960E9417056093AD
:104F1000EB047093EC048093ED049093EE04EEEDBB
:104F2000F4E08CE791E091838083158214821782EC
:104F300016821382128211861086138612861486B8
:104F4000E1EDF4E08EE591E0918380831582148297
:104F50001782168213821282118610861386128699
:104F60001486E4ECF4E080E491E091838083158280
:104F7000148217821682138212821186108613867B
:104F80001286148626960FB6F894DEBF0FBECDBFEC
:104F9000DF91CF910895CF93DF93CDB7DEB7AB9775
:104FA0000FB6F894DEBF0FBECDBF789484B5826093
:104FB00084BD84B5816084BD85B5826085BD85B5BD
:104FC000816085BD80916E00816080936E0010923B
:104FD00081008091810082608093810080918100B6
:104FE0008160809381008091800081608093800047
:104FF0008091B10084608093B1008091B0008160A5
:105000008093B00080917A00846080937A008091D0
:105010007A00826080937A0080917A008160809328
:105020007A0080917A00806880937A001092C100A3
:105030006AE071E07BA76AA78B0161E0F8018191CA
:105040008F010E94F400F1E008311F07B1F760E022
:1050500085E10E94F400E0912B04F0912C0482E0A1
:105060008083E0912704F09128041082E0912904C4
:10507000F0912A048FEC808310923304E0912F0486
:10508000F091300486E08083E0912D04F0912E04AD
:10509000808180618083E0912D04F0912E048081D5
:1050A00088608083E0912D04F0912E0480818068D7
:1050B0008083E0912D04F0912E0480818F7D808388
:1050C0008091A7039091A803009711F00E940430EB
:1050D00086E090E00E94682F8C0188E6F8018083CA
:1050E00088EB94E092838183138280E290E0958341
:1050F00084831093A8030093A7031092AA0310922D
:10510000A9031092F80310921A040E94080387E87A
:1051100091E0909371038093700388E891E09093FD
:105120006F0380936E03FF24F394F801F382C801A8
:105130000E94DE0489A781110FC084E892E00E94DA
:10514000690D8BE194E00E94C1026AE070E080E0AA
:1051500090E00E945501F9CF1FA28091A703909182
:10516000A803FC0124813581232B89F02081F09252
:10517000F703209319041092F80310921A0421E007
:1051800041E050E0BE01695D7F4F0E94C00441E0F4
:1051900050E0BE016F5F7F4F8091A7039091A803FD
:1051A0000E94CA0A898190E0880F892F881F990B75
:1051B000892B09F459C086E992E00E94690D4BE001
:1051C00050E066E870E0CE0101960E94CD2CCE0141
:1051D0000A960E942F278C87E981E154E33120F55C
:1051E0000E2E000CFF0BE950F74D0C945B2F372A65
:1051F000142914294B2A1429352A1429142914296D
:105200000A29142914293E2A492A472A142914292B
:105210001429452A8A81813609F423C18B818E366F
:1052200009F021C186E08D87CE0105960E942F27C7
:105230008E8748E050E06DE770E0CE0101960E9455
:10524000CD2CCE0101960E942F278F87CE01049688
:105250000E942F27888BCE0107960E942F27898BCB
:10526000CE010C960E94EF0B1092A6031092A5039C
:10527000CE010C960E94710CCE0101960E94710C19
:10528000CE0101960E9417056B017C01CE010C96A0
:105290000E941705C61AD70AE80AF90AF694E79495
:1052A000D794C794D092A603C092A50364E670E099
:1052B00080E090E00E94550161E084E00E94F400EB
:1052C00062E081E10E94F4006EEB72E0CE010C9688
:1052D0000E949516BE01645F7F4FCE0101960E9429
:1052E0007B1666E070E0CE0101960E948F150E9449
:1052F0005B0DCE0101960E94950DCE010C960E9489
:10530000950D8AEC92E00E94690D0E941A0D2B0106
:105310003C0166247724B301A201CE014E960E947F
:10532000800510E000E08CE3282E312C8091E00411
:105330009091E104081719070CF0D2C0B8018EED66
:1053400094E00E94A7095B01F82E94FBFF27F0F977
:10535000F8A7282F221F2227221F892F8F70880F3E
:10536000822B90E0FC01EE0FFF1FE80FF91FEE58B3
:10537000FC4F80819181A2818C879D87AE87B3018C
:10538000A201CE0101960E948005EF2CE894E7F877
:10539000CE0101960E9417054B014E2D950150E05C
:1053A000ACE3B0E00E94F22DC090EB04D090EC048E
:1053B000E090ED04F090EE04C60ED71EE81EF91E34
:1053C0008C189D08CE01019625EC82162FEF9206CF
:1053D0000CF463C00E941705CB018C199D09B10123
:1053E0000E94062F072E000C880B990B0E944D2D52
:1053F00020E030E040E05FE30E94442E0E94B02EA7
:105400005B0177FD2BC08E8D89838F8D8A8388A168
:105410008B8389A18C838AA18D838BA18E836C85DC
:105420007D858E85AE014F5F5F4F0E94B7098E3F2D
:105430006FEF960709F046C0B701A601CE010C96A2
:105440000E94280A8E8578A570FB87F98E87B8019F
:105450008EED94E00E94E410015011090F5F1F4F80
:1054600065CF81E0E0CE87E0DECE82E0DCCE8B81CE
:10547000823711F484E0D7CE88E0D5CE8B81823795
:1054800011F483E0D0CE85E0CECE89E0CCCE8AE0A8
:10549000CACE8BE0C8CE8CE0C6CE0E941705CB01E9
:1054A0008C199D09B1010E94062F072E000C880B54
:1054B000990B0E944D2D20E030E040E05FE30E9418
:1054C000432E9CCFA816B90614F6B701A601CE014B
:1054D0000C960E94280A8E8598A590FB87F9B6CF76
:1054E000F12CE12C6CE3962E70EAA72E75E0B72E16
:1054F0008091D3049091D404E816F9060CF0DEC034
:10550000B70181ED94E00E949A09172F972F929589
:1055100096959770282F2170220F220F220F292B8A
:1055200030E0F901EE0FFF1FE20FF31FEE58FC4FC2
:10553000208131814281288F398F4A8F58A1E52FF0
:10554000F0E030E020E070E0DB010E2E02C0B59507
:10555000A7950A94E2F7A0FF65C0DE8CBF8D49A134
:105560009AA1ABA11F71642F611B770BFB019E9E5B
:10557000B0019F9E700D112486958F73E92FE81B53
:10558000FF0B8F01060F171F2A9DB0012B9D700D79
:105590003A9D700D1124060F171F17FF50C00056BB
:1055A0001A4F0E3FFFEF1F0709F049C0B70181ED09
:1055B00094E00E94931021E0E21AF10869ED72E094
:1055C000CE0142960E94951660EF72E0CE010196E0
:1055D0000E949516BE016F5F7F4FCE010C960E9410
:1055E0007B1661E070E0CE010C960E945B1562EFC5
:1055F00071E00E94F615BE016E5E7F4F0E9410168C
:105600000E945B0DCE010C960E94950DCE01019675
:105610000E94950DCE0142960E94950D7FEFE71AEC
:10562000F70A66CF309741F031972F5F3F4F273011
:10563000310509F089CFBACFE6E0F0E0F6CF1016D9
:10564000110664F7D982BA835B834C839D83AE8352
:10565000688D798D8A8DAE014F5F5F4F0E94B709CB
:105660006C012CE330E0A02F002E000CBB0B0E943D
:10567000612F2B013C01CE014E960E941705AB0114
:10568000BC014419550966097709CE0101960E94AB
:1056900080056EEFC6166FEFD60659F4CE0101965F
:1056A0000E941705AB01BC01CE0148960E94280A52
:1056B000B5CF0C151D050CF0B1CFF0CF10E000E018
:1056C0003CE3C32ED12C40EAE42E45E0F42E809139
:1056D000C6049091C704081719070CF0F4C0B8016C
:1056E00084EC94E00E946A09288F398F4A8F5B8F7F
:1056F0006C8F7D8F5F70852F90E0FC01EE0FFF1F98
:10570000E80FF91FEE58FC4F80819181A2818CA394
:105710009DA3AEA38E8D8C878F8D8D8788A18E875C
:1057200089A18F878AA1888B8BA1898B86E0FE0156
:105730007896DE01119601900D928A95E1F7CE01DF
:105740000C960E9417054B01CE0101960E94A60AF5
:10575000861A970A85EC88168FEF98060CF489C094
:10576000CE010C960E9417054B01CE0101960E94B6
:10577000A60AC401861B970BB6010E94062F072EAE
:10578000000C880B990B0E944D2D20E030E040E08A
:105790005FE30E94442E0E94B02E5B0177FD66C03D
:1057A0004E81E42FF0E0CB01B7010E94062FCB0120
:1057B000BF010E94F22E8D818617170609F008F4AA
:1057C00074C0EE9DA001EF9D500DFE9D500D112463
:1057D000469FC001479F900D569F900D1124A81A17
:1057E000B90A912C9FEFA916B90609F43FC01A1403
:1057F0001B04E4F58E8D8C878F8D8D8788A18E8715
:1058000089A18F878AA1888B8BA1898B6CA17DA1AF
:105810008EA1AE01445F5F4F0E94B7098E3FEFEF4C
:105820009E0719F0A816B90694F4CE0148960E9476
:10583000A60AAB01BC01CE0184960E94280A8A8D7B
:1058400087FB882780F99EA180FB97F99EA399206A
:1058500069F0B80184EC94E00E9412102A8B3B8B13
:105860004C8B5D8B6E8B7F8B015011090F5F1F4F2F
:105870002ECFCE010C960E9417054B01CE0101964A
:105880000E94A60AC401861B970BB6010E94062F30
:10589000072E000C880B990B0E944D2D20E030E064
:1058A00040E05FE30E94432E76CF489FC001112461
:1058B0008E9DA0018F9D500D9E9D500D1124A41A08
:1058C000B50A99A48FCF89EF92E00E94690D02E793
:1058D00013E08CE9E82E83E0F82EF80162810D5F79
:1058E0001F4F661F6627661FEAA5FBA58191FBA7D0
:1058F000EAA70E94C600E016F10679F783E193E07B
:105900000E94690D00E010E08EE193E00E94690DB5
:105910000E94651864E670E080E090E00E94550106
:105920000115110589F30E943E02882369F30E9444
:105930000000EACF84EC94E00E94DD0D81ED94E05C
:105940000E94BD0D8EED94E00C949D0D1F93FC0103
:1059500099278827BC01E89411911032E9F3193096
:1059600010F01E30C8F31B3251F01D3249F4689418
:1059700006C00E94E12C610F711D811D911D1191C6
:1059800010531A30B0F33EF4909580957095619560
:105990007F4F8F4F9F4F1F910895FB01DC0102C085
:1059A00005900D9241505040D8F70895BB274A30DA
:1059B00031F4992322F4BDE2909581959F4F0C9488
:1059C000192D592F482F372F262F660F771F881F25
:1059D000991F660F771F881F991F620F731F841FFF
:1059E000951F660F771F881F991F0895BB27FA011F
:1059F000A62F6217710581059105330B30FB66F008
:105A0000AA27660F771F881F991FAA1FA21710F0D9
:105A1000A21B63953850A9F7A05DAA3308F0A95DD1
:105A2000A19336F7B111B1931082CA010C943B2DAA
:105A3000BB27FB015527AA27880F991FAA1FA41768
:105A400010F0A41B83955051B9F7A05DAA3308F05C
:105A5000A95DA193009779F7B111B1931192CB0190
:105A60000C943B2D91110C94882D803219F08950A3
:105A70008550C8F70895DC01FC01672F71917723E9
:105A8000E1F7329704C07C916D9370836291AE17F9
:105A9000BF07C8F30895E89409C097FB3EF49095BA
:105AA0008095709561957F4F8F4F9F4F9923A9F0F7
:105AB000F92F96E9BB279395F69587957795679586
:105AC000B795F111F8CFFAF4BB0F11F460FF1BC0CA
:105AD0006F5F7F4F8F4F9F4F16C0882311F096E95D
