:100000000C9473000C949B000C949B000C945C2348
:100010000C945C230C945C230C949B000C949B002C
:100020000C949B000C949B000C949B000C949B00E4
:100030000C949B000C949B000C949B000C949B00D4
:100040000C94BA220C949B000C942A230C94042345
:100050000C949B000C949B000C949B000C949B00B4
:100060000C94D4230C949B001F1C1F1E1F1E1F1FCB
:100070001E1F1E31373A35373A3033005365702032
:1000800031362032303232000000000024002700D8
:100090002A0000000008000201000003040700001D
:1000A00000000000000000000000230026002900DE
:1000B00000000000250028002B00040404040404B0
:1000C0000404020202020202030303030303010207
:1000D00004081020408001020408102001020408D6
:1000E000102000259D2911241FBECFEFD8E0DEBFD0
:1000F000CDBF24E0ACE8B2E001C01D92A83CB2073D
:10010000E1F712E0A0E0B1E0E0E4FAE502C005901A
:100110000D92AC38B107D9F710E0C2E7D0E004C0C7
:100120002197FE010E94072BC137D107C9F70E9412
:100130003C260C94132D0C94000090E0FC01EE562C
:10014000FF4F2491FC01E253FF4F3491FC01E65430
:10015000FF4FE491EE23C9F0222339F0233001F15F
:10016000A8F4213019F1223029F1F0E0EE0FFF1F41
:10017000E055FF4FA591B4918FB7F894EC916111C0
:1001800026C030953E233C938FBF08952730A9F0B9
:100190002830C9F0243049F7809180008F7D03C05A
:1001A000809180008F7780938000DFCF84B58F7738
:1001B00084BDDBCF84B58F7DFBCF8091B0008F777E
:1001C0008093B000D2CF8091B0008F7DF9CF3E2BCD
:1001D000DACFCF93DF9390E0FC01E253FF4F2491FD
:1001E00086549F4FFC0184918823D1F090E0880FC2
:1001F000991FFC01E857FF4FA591B491FC01E05510
:10020000FF4FC591D49161110EC09FB7F8948C91A6
:10021000E22FE0958E238C932881E223E8839FBF11
:10022000DF91CF9108958FB7F894EC91E22BEC9386
:100230008FBFF6CF3FB7F89480911F0390912003B2
:10024000A0912103B091220326B5A89B05C02F3FA2
:1002500019F00196A11DB11D3FBFBA2FA92F982FEC
:100260008827BC01CD01620F711D811D911D42E0E7
:10027000660F771F881F991F4A95D1F708958F92AF
:100280009F92AF92BF92CF92DF92EF92FF924B017B
:100290005C010E941A016B017C010E941A016C1919
:1002A0007D098E099F09683E734081059105A8F379
:1002B00021E0821A9108A108B10888EEC80E83E0F7
:1002C000D81EE11CF11C81149104A104B10429F78A
:1002D000FF90EF90DF90CF90BF90AF909F908F9066
:1002E0000895089508950895DB0114964D915C9149
:1002F00015976D917C91DC01ED91FC910280F38169
:10030000E02D0994AF92BF92CF92DF92EF92FF92CD
:100310000F931F93CF93DF936C017B018B01040F2D
:10032000151FEB015E01AE18BF08C017D10759F0C9
:100330006991D601ED91FC910190F081E02DC6010B
:100340000995892B79F7C501DF91CF911F910F9105
:10035000FF90EF90DF90CF90BF90AF900895FC0199
:10036000538D448D252F30E0842F90E0821B930B1A
:10037000541710F0CF96089501970895FC01918DC0
:10038000828D981761F0A28DAE0FBF2FB11D5D96C3
:100390008C91928D9F5F9F73928F90E008958FEF65
:1003A0009FEF0895FC01918D828D981731F0828D19
:1003B000E80FF11D858D90E008958FEF9FEF089570
:1003C000FC01918D228D892F90E0805C9F4F821BD4
:1003D00091098F739927089583ED93E00E94E001BE
:1003E00021E0892B09F420E0822F089580E090E03D
:1003F000892B29F00E94EC0181110C9400000895D2
:10040000FC01A48DA80FB92FB11DA35ABF4F2C9189
:10041000848D90E001968F739927848FA689B78980
:100420002C93A089B1898C91837080648C93938D77
:10043000848D981306C00288F389E02D80818F7D1A
:1004400080830895EF92FF920F931F93CF93DF93D2
:10045000EC0181E0888F9B8D8C8D98131AC0E88900
:10046000F989808185FF15C09FB7F894EE89FF89CF
:100470006083E889F98980818370806480839FBF6D
:1004800081E090E0DF91CF911F910F91FF90EF906D
:100490000895F62E0B8D10E00F5F1F4F0F7311277D
:1004A000E02E8C8D8E110CC00FB607FCFACFE889B8
:1004B000F989808185FFF5CFCE010E940002F1CF3E
:1004C000EB8DEC0FFD2FF11DE35AFF4FF0829FB72C
:1004D000F8940B8FEA89FB8980818062CFCFCF931C
:1004E000DF93EC01888D8823B9F0AA89BB89E8895C
:1004F000F9898C9185FD03C0808186FD0DC00FB602
:1005000007FCF7CF8C9185FFF2CF808185FFEDCF7F
:10051000CE010E940002E9CFDF91CF910895209192
:100520001603309117032817390771F490911403BB
:1005300080911503981741F0E0911403F0E0E05327
:10054000FD4F808190E008958FEF9FEF089508950B
:10055000EF92FF920F931F93CF93DF93DC015C9692
:10056000ED90FC905D97E114F10479F481E090E066
:1005700013969C938E93129790E080E0DF91CF9139
:100580001F910F91FF90EF9008955196ED91FC917E
:10059000529750968C915097982F90950FB75E96E2
:1005A0002C915E97122F127021FD6095F894208196
:1005B000112319F1282B2083E7012197F1F728E077
:1005C000462F50E0308160FF1AC0382B3083E7019E
:1005D0002197F1F7BA0175956795215089F7112395
:1005E00081F08081892380830FBF5C968D919C91DF
:1005F0000197F1F781E090E0C1CF2923DCCF3923C7
:10060000E5CF9081892BEFCF20911603309117030E
:100610002817390761F4809115032091140390E0A5
:10062000805C9F4F821B91098F739927089590E0FA
:1006300080E0089520911603309117032817390799
:10064000B9F49091140380911503981789F0E09103
:100650001403F0E0E053FD4F80812091140330E05B
:100660002F5F3F4F2F7333272093140390E008959B
:100670008FEF9FEF08952FB7F89480915B039091CF
:100680005C03A0915D03B0915E032FBF809384044F
:1006900090938504A0938604B09387048CE794E03C
:1006A0000E941A0397FF26C02FB7F89480915B032E
:1006B00090915C03A0915D03B0915E032FBF4091C8
:1006C0008404509185046091860470918704841B92
:1006D000950BA60BB70B409180045091810460915B
:1006E00082047091830484179507A607B707B0F2B8
:1006F0008FEF9FEF08952091AD02260F3327331F10
:1007000021323105ECF42091A903FC0190E080E056
:10071000243069F082E00895A091AD022191AC01EE
:1007200043575D4FA40FB52FB11D2C93019686172B
:1007300098F38091AD02680F6093AD0280E0089558
:1007400081E008951092A90381E08093A80310929C
:10075000830361E082E10E949D0061E083E10E94E9
:100760009D00E9EBF0E080818E7F808380818D7F2A
:10077000808388E48093B80085E48093BC0008956A
:10078000CF93DF9391E090938C028823B9F0C091CE
:10079000B800D091BA008091BC008A7B8093BC00E5
:1007A00060E082E10E949D0060E083E10E949D0084
:1007B0000E94A203D093BA00C093B800DF91CF91FA
:1007C00008958F929F92AF92BF92CF92DF92EF9255
:1007D000FF920F931F93CF93DF93D091D203D13227
:1007E00008F0D7C0182FC091D1030E941A016B01E5
:1007F0007C018091A90381116BC082E08093A903E1
:100800001093A8038FEF8093A7031092A603D093B1
:10081000A503A1EBB3E0E5E8F3E080E0D81391C0D5
:100820001092840380918403CC0FC82BC09384035F
:1008300080918303813009F088C0109283030E9465
:100840001A016B017C01809184038093BB0080912D
:10085000AB039091AC03A091AD03B091AE03892B93
:100860008A2B8B2BA1F00E941A010091AB031091EF
:10087000AC032091AD033091AE036C197D098E0954
:100880009F09061717072807390708F442C0809107
:10089000BC0083FDD8CF85EC8093BC000E941A0178
:1008A0006B017C018091A903823009F450C08091D2
:1008B000A7038F3F09F46FC08091A703803209F42A
:1008C0006CC08091A703803309F469C084E026C01E
:1008D0008091AB039091AC03A091AD03B091AE03B6
:1008E000892B8A2B8B2B09F484CF0E941A018090CC
:1008F000AB039090AC03A090AD03B090AE036C1925
:100900007D098E099F0986169706A806B90608F084
:1009100070CF8091AA030E94C00385E01092B003BB
:100920001092D2031092AF03DF91CF911F910F91DC
:10093000FF90EF90DF90CF90BF90AF909F908F90FF
:1009400008959D9191938F5F69CF85EEA5CF80919A
:10095000AB039091AC03A091AD03B091AE03892B92
:100960008A2B8B2B09F49ECF0E941A010091AB03B6
:100970001091AC032091AD033091AE036C197D0949
:100980008E099F09061717072807390708F08ACF2D
:10099000C0CF81E0C3CF80E0C1CF82E0BFCF83E092
:1009A000BDCFE091620380916103E81730F4F0E07D
:1009B000ED59FC4F808190E008958FEF9FEF0895EF
:1009C00090916203809161032FEF3FEF981748F4F5
:1009D000E92FF0E0ED59FC4F208130E09F5F9093CC
:1009E0006203C90108958091610390916203891B9C
:1009F000990B0895CF92DF92EF92FF920F931F937E
:100A0000CF93DF937C01CB018A012091AF03222396
:100A100089F0EB016B01C40ED51ECC15DD0569F024
:100A20006991D701ED91FC910190F081E02DC70112
:100A30000995F3CF642F0E947B03C801DF91CF910A
:100A40001F910F91FF90EF90DF90CF900895CF937B
:100A5000DF931F92CDB7DEB769832091AF032223C6
:100A6000F9F02091D203203258F021E030E0FC016F
:100A70003383228390E080E00F90DF91CF9108953F
:100A80008091B003E82FF0E0EF54FC4F9981908300
:100A90008F5F8093B0038093D20381E090E0ECCF2E
:100AA00061E0CE0101960E947B03F7CF90E080E0E9
:100AB00008951F93CF93DF93EA01122FDC01119663
:100AC0008D919C91DC01ED91FC910280F381E02DF0
:100AD0000995C817D90729F4812F0E94E10391E0F5
:100AE000811190E0892FDF91CF911F910895CF93CD
:100AF000DF93EC018B818823A1F0888191E09093B2
:100B0000AF038093D1031092B0031092D20381E01F
:100B10000E94E10391E0811190E0892FDF91CF9154
:100B2000089510926203109261031092B003109224
:100B3000D2030E94A20381E791E090931303809374
:100B4000120382E791E0909311038093100381E0F8
:100B50008B83CE010E947705982F8111CECFDDCFF8
:100B6000EF92FF920F931F93CF93DF93EC01698174
:100B70003881432F50E02A81822F90E0E8E6F0E0B0
:100B800021E0261730F47491870F911D2F5F319665
:100B9000F8CF633018F0337009F401966DE671E018
:100BA000469F9001479F300D569F300D11242150D4
:100BB00031094D5F5F4F5695479556954795240FE0
:100BC000351F280F391FA8E1B0E00E94A22A2B810F
:100BD0007B018C01E20EF11C011D111DA801970182
:100BE000ACE3B0E00E94602A2C817B018C01E20E14
:100BF000F11C011D111DA80197010E94602AAB0183
:100C0000BC019D81892F90E0B0E0A0E080589C4B12
:100C1000A249B74C8A019B01080F191F2A1F3B1FCD
:100C2000C901B801DF91CF911F910F91FF90EF9013
:100C300008958F929F92AF92BF92CF92DF92EF92E0
:100C4000FF92CF93DF93EC016A017B0180E8C81A21
:100C500083E4D80A8DE6E80A88E3F80A8CE3882E54
:100C6000912CA12CB12CC701B601A50194010E94C1
:100C7000E52A6D83CA01B901A50194010E94E52A04
:100C80006C83C701B60120E13EE040E050E00E94E5
:100C9000E52ACA01B90128E130E040E050E00E94B5
:100CA000E52A6B83C701B60120E831E541E050E059
:100CB0000E94E52A188263E97EEF8881982F93705D
:100CC00041E050E011F050E040E0FA01E359FE4FFE
:100CD0002E173F0740F0FB01E41BF50B2E0F3F1FC3
:100CE0008F5F8883EACF81E0898389818C30A0F48B
:100CF000482F4150550BFA01E859FF4FE4919111EB
:100D000003C0823009F4EF5FF0E02E173F0720F0B8
:100D10002E1B3F0B8F5FE8CF2F5F2A83DF91CF9190
:100D2000FF90EF90DF90CF90BF90AF909F908F900B
:100D300008950F931F93CF93DF938B01EC016C8188
:100D40007D816115710551F0CE01F80109951816E4
:100D5000190624F00C80DD81C02DF1CFCE01DF918A
:100D6000CF911F910F9108950F931F93CF93DF930E
:100D70008B01EC016B817C816115710551F0CE0115
:100D8000F80109951816190624F00B80DC81C02D96
:100D9000F1CFCE01DF91CF911F910F9108950F9365
:100DA0001F93CF93DF938B01EC016E817F816115DF
:100DB000710551F0CE01F80109951816190624F0B5
:100DC0000E80DF81C02DF1CFCE01DF91CF911F9139
:100DD0000F9108954F925F926F927F928F929F92A0
:100DE000AF92BF92CF92DF92EF92FF920F931F9339
:100DF000CF93DF93FC012281338122303105F4F05F
:100E00005B016C012C01F4E04F0E511C7201F701E3
:100E1000C081D1812097D1F3B501CE010E949906FE
:100E20004C01FC010481158101151105C1F4E41484
:100E3000F50461F7F601978386831486DF91CF91DD
:100E40001F910F91FF90EF90DF90CF90BF90AF90E8
:100E50009F908F907F906F905F904F900895B50115
:100E6000C8010E949906FC0164807580F401158216
:100E70001482FC0115821482B801CE01F501099596
:100E8000F701181619066CF0D183C0837E01F4E0D7
:100E9000EF0EF11C8C819D81009781F41D830C83E2
:100EA0001CC0118300837801F4E0EF0EF11CF801FF
:100EB000848195810097D1F08C01CE01EC01DCCFCB
:100EC000EC018C819D810097D9F77D826C827E0137
:100ED000F4E0EF0EF11C9BCF8C01F8018481958129
:100EE0000097D1F7758264827801F2CFD583C483ED
:100EF000E8CFCF93DF93EC01E881F9810480F5819D
:100F0000E02DCE0109951816190644F4E881F981FF
:100F10000288F389E02DCE010995EECFDF91CF91C4
:100F200008954F925F926F927F928F929F92AF92AD
:100F3000BF92CF92DF92EF92FF920F931F93CF93C6
:100F4000DF93FC012281338122303105F4F05B0113
:100F50006C012C01F4E04F0E511C7201F701C081AD
:100F6000D1812097D1F3B501CE010E94B4064C0186
:100F7000FC010381148101151105C1F4E414F50489
:100F800061F7F601978386831486DF91CF911F91D5
:100F90000F91FF90EF90DF90CF90BF90AF909F9018
:100FA0008F907F906F905F904F900895B501C8012A
:100FB0000E94B406FC0163807480F40114821382E1
:100FC000FC0114821382B801CE01F5010995F701E5
:100FD000181619066CF0D183C0837E01F3E0EF0E82
:100FE000F11C8B819C81009781F41C830B831CC0B6
:100FF000118300837801F3E0EF0EF11CF801838187
:1010000094810097D1F08C01CE01EC01DCCFEC0192
:101010008B819C810097D9F77C826B827E01F3E003
:10102000EF0EF11C9BCF8C01F80183819481009716
:10103000D1F7748263827801F2CFD483C383E8CF7F
:10104000CF93DF93EC01E881F9810480F581E02DF5
:10105000CE0109951816190644F4E881F981028831
:10106000F389E02DCE010995EECFDF91CF91089560
:101070004F925F926F927F928F929F92AF92BF92A8
:10108000CF92DF92EF92FF920F931F93CF93DF9354
:10109000FC012281338122303105F4F05B016C01C7
:1010A0002C01F4E04F0E511C7201F701C081D18177
:1010B0002097D1F3B501CE010E94CF064C01FC016F
:1010C0000681178101151105C1F4E414F50461F7D7
:1010D000F601978386831486DF91CF911F910F913C
:1010E000FF90EF90DF90CF90BF90AF909F908F9048
:1010F0007F906F905F904F900895B501C8010E9456
:10110000CF06FC0166807780F40117821682FC010D
:1011100017821682B801CE01F5010995F70118165C
:1011200019066CF0D183C0837E01F6E0EF0EF11C4E
:101130008E819F81009781F41F830E831CC01183D1
:1011400000837801F6E0EF0EF11CF80186819781AB
:101150000097D1F08C01CE01EC01DCCFEC018E8147
:101160009F810097D9F77F826E827E01F6E0EF0EB5
:10117000F11C9BCF8C01F801868197810097D1F7F4
:10118000778266827801F2CFD783C683E8CF0F9348
:101190001F93CF93DF9300D000D000D0CDB7DEB740
:1011A0008C01D801ED91FC910480F581E02DC801FE
:1011B0000995181619067CF4D801ED91FC91028866
:1011C000F389E02DC801099529833A834B835C8319
:1011D0006D837E83E6CF26960FB6F894DEBF0FBEF2
:1011E000CDBFDF91CF911F910F910895DC0114962F
:1011F000ED91FC9115971C968C911C978823B1F06A
:101200001A962D913C911B97621773077CF01896E4
:10121000ED91FC911997261737075CF43097C1F0D0
:101220000680F781E02D2F5F3F4FF5CF30E020E0C3
:10123000F2CF2617370771F481E01C968C931C9728
:101240001B963C932E931A971996FC93EE9318973E
:10125000CF010895F0E0E0E0FBCF0F931F93CF9311
:10126000DF9300D000D000D0CDB7DEB709831A835A
:101270002B833C834D835E8377FD1CC0FC01228160
:10128000338162177307B4F40E94F608DC0196E01C
:10129000FE01319601900D929A95E1F781E0269634
:1012A0000FB6F894DEBF0FBECDBFDF91CF911F9177
:1012B0000F91089580E0F3CFDC011496ED91FC913D
:1012C00015971C968C911C978823B1F01A962D9136
:1012D0003C911B97621773077CF01896ED91FC9177
:1012E0001997261737075CF43097C1F00380F48113
:1012F000E02D2F5F3F4FF5CF30E020E0F2CF2617F3
:10130000370771F481E01C968C931C971B963C93D5
:101310002E931A971996FC93EE931897CF01089580
:10132000F0E0E0E0FBCFCF92DF92EF9277FD14C0C8
:10133000DC011296ED91FC916E177F076CF4690148
:10134000E42E0E945C09FC01C082D182E28281E02D
:10135000EF90DF90CF90089580E0FACFDC011496F3
:10136000ED91FC9115971C968C911C978823B1F0F8
:101370001A962D913C911B97621773077CF0189673
:10138000ED91FC911997261737075CF43097C1F05F
:101390000480F581E02D2F5F3F4FF5CF30E020E056
:1013A000F2CF2617370771F481E01C968C931C97B7
:1013B0001B963C932E931A971996FC93EE931897CD
:1013C000CF010895F0E0E0E0FBCFCF92DF92EF9203
:1013D000FF9277FD16C0DC011296ED91FC916E171D
:1013E0007F077CF469017A010E94AE09FC01C0828A
:1013F000D182E282F38281E0FF90EF90DF90CF9084
:10140000089580E0F9CFCF93DF9300D000D000D0D3
:10141000CDB7DEB70E94F608FC01DE011196892BDC
:10142000B1F096E001900D929A95E1F729813A8109
:101430004B815C816D817E8180E090E026960FB6C5
:10144000F894DEBF0FBECDBFDF91CF91089586E047
:10145000FD0111928A95E9F781E08E83E7CFFC01C7
:101460008281938108950E945C09FC01892B21F0FF
:10147000608171818281089570E080E067E0089565
:101480000E94AE09009731F0FC0160817181828178
:101490009381089560E070E0CB0108950F931F934E
:1014A000CF93DF93C3E2D3E006E011E06B81249693
:1014B00063FB662760F9F80181918F010E949D000E
:1014C000F3E0CB35DF0791F7DF91CF911F910F91BB
:1014D00008952F923F924F925F926F927F928F92D8
:1014E0009F92AF92BF92CF92DF92EF92FF920F93B3
:1014F0001F93CF93DF935C011B016A01F12CE12C58
:10150000D50114968D919C9186010E191F098017A3
:10151000910708F48C01F501D0810E941A012B017A
:101520003C018091A903811172C0C02F013208F0E3
:10153000C0E2F1E0F093A90321E0C601801B910B0A
:10154000E816F90608F420E02093A8038FEF8093B3
:10155000A7031092A6038C0F8093A503A1E0A0938C
:10156000840380918403DD0FD82BD0938403809172
:101570008303813009F090C0109283030E941A0106
:101580002B013C01809184038093BB008091AB03CD
:101590009091AC03A091AD03B091AE03892B8A2B3F
:1015A0008B2BA1F00E941A012091AB033091AC0368
:1015B0004091AD035091AE036419750986099709EE
:1015C000261737074807590708F442C08091BC0026
:1015D00083FDD8CFB5ECB093BC000E941A012B015B
:1015E0003C018091A903813009F45AC08091A6037F
:1015F0008C1710F4C091A603A5E8B3E0E3E6F3E08E
:1016000080E08C1751F19D9191938F5FFACF80917B
:10161000AB039091AC03A091AD03B091AE03892BC5
:101620008A2B8B2B09F47DCF0E941A012091AB03EA
:101630003091AC034091AD035091AE03641975092C
:1016400086099709261737074807590708F069CF11
:101650008091AA030E94C003C0E010926203C0936D
:101660006103C017110609F057C041018E0C9F1C81
:10167000E401CE01881999098017910798F5D501E1
:1016800011968D919C91DC01ED91FC910284F38582
:10169000E02D09958993EDCFE5EEE093BC009DCF59
:1016A0008091AB039091AC03A091AD03B091AE03D8
:1016B000892B8A2B8B2B09F494CF0E941A0120913D
:1016C000AB033091AC034091AD035091AE0364196C
:1016D000750986099709261737074807590708F03B
:1016E00080CFB6CFE00EF11EEC14FD0408F408CF55
:1016F00081E0DF91CF911F910F91FF90EF90DF90EC
:10170000CF90BF90AF909F908F907F906F905F90A1
:101710004F903F902F90089580E0EBCFEF92FF9293
:101720000F931F93CF93DF9300D000D000D01F9270
:10173000CDB7DEB78C011982E0905F03F0906003B3
:10174000D70114968D919C911597892BE9F08C9176
:1017500091E09093AF038093D1031092B003109265
:10176000D20320E041E050E0BE016F5F7F4FC70130
:101770000E945905882341F047E050E0BE016F5FA9
:101780007F4FC7010E94690AE981EF77FA81FB80E8
:101790004D815E818F81282F30E094E0359527952B
:1017A0009A95E1F7922F990F990F291B220F280F75
:1017B000D8012C93852F90E024E0959587952A9564
:1017C000E1F7982F990F990F891B880F850F1196B4
:1017D0008C931197642F70E034E0759567953A9576
:1017E000E1F7862F880F880F681B660F640F12962B
:1017F0006C9312974F2D50E064E0559547956A958C
:10180000E1F7842F880F880F481B440F4F0D139664
:101810004C9313972F2F30E074E0359527957A95E8
:10182000E1F7822F880F880F281B220F2F0F1496A5
:101830002C9314978E2F90E0F4E095958795FA9568
:10184000E1F7982F990F990F891B880F8E0F159626
:101850008C93C80127960FB6F894DEBF0FBECDBF9C
:10186000DF91CF911F910F91FF90EF900895FB01B1
:1018700001900020E9F73197AF01461B570BDC01BF
:10188000ED91FC910280F381E02D09940F931F9359
:10189000CF93DF93EC010E9474018C0164EA71E044
:1018A000CE010E94370C800F911FDF91CF911F91C5
:1018B0000F9108950F931F93CF93DF938C01D0E086
:1018C000C0E06115710519F00E94370CEC0164EA63
:1018D00071E0C8010E94370C8C0F9D1FDF91CF91E2
:1018E0001F910F9108950F931F93CF93DF938C0156
:1018F000EB010E944A2A8883C80101960E944A2A65
:101900008983CE01DF91CF911F910F910895CF93DD
:10191000DF93EC0188819981009711F00E94A92B37
:10192000198218821D821C821B821A82DF91CF913C
:101930000895FC0180819181009711F00C94A92BEE
:101940000895CF93DF93EC018AE891E0998388832F
:101950008C819D81009741F0FC01248135813D837C
:101960002C830E94A92BF4CFDF91CF910895CF93C0
:10197000DF93EC010E94A10CCE01DF91CF910C947A
:10198000A92BCF93DF93EC018CE691E099838883B8
:101990008C819D81009741F0FC01238134813D833E
:1019A0002C830E94A92BF4CFDF91CF910895CF9380
:1019B000DF93EC010E94C10CCE01DF91CF910C941A
:1019C000A92BCF93DF93EC018EE491E09983888378
:1019D0008C819D81009741F0FC01268137813D83F8
:1019E0002C830E94A92BF4CFDF91CF910895CF9340
:1019F000DF93EC010E94E10CCE01DF91CF910C94BA
:101A0000A92BCF92DF92EF92FF920F931F93CF9368
:101A1000DF93CDB7DEB72C970FB6F894DEBF0FBEBD
:101A2000CDBFFC01628173819E012F5F3F4F790121
:101A30001616170634F186E0F901282F11922A951F
:101A4000E9F791E09E83F701DE01179601900D9270
:101A50008A95E1F72F81388549855A856B857C8584
:101A600080E090E02C960FB6F894DEBF0FBECDBF9D
:101A7000DF91CF911F910F91FF90EF90DF90CF906A
:101A800008958C01FC01148661307105F1F06250FB
:101A900071090E94F6086C01FC018681978126E09D
:101AA000FC01D70101900D922A95E1F70E94A92B24
:101AB000F60117821682F801D782C682828193814D
:101AC00001979383828386E0BECF8481958126E04F
:101AD000FC01D70101900D922A95E1F70E94A92BF4
:101AE000F801158214821782168213821282EBCFBC
:101AF000EF92FF920F931F93CF93DF93CDB7DEB793
:101B00002C970FB6F894DEBF0FBECDBFDC01129646
:101B10002D913C911397121613062CF186E0FE01CD
:101B20003196DF01982F1D929A95E9F791E09E83F7
:101B3000DE01179601900D928A95E1F72F81388585
:101B400049855A856B857C8580E090E02C960FB6A0
:101B5000F894DEBF0FBECDBFDF91CF911F910F91E3
:101B6000FF90EF9008952130310571F18C01DC0177
:101B700014968D919C91FC01E680F78026E0DE01B1
:101B8000179601900D922A95E1F70E94A92BD80192
:101B90001596FC92EE92149712968D919C91139744
:101BA000019713969C938E9312971C961C9286E035
:101BB000FE013796DE01119601900D928A95E1F7AC
:101BC00086E0FE013196B4CFED91FC910088F18959
:101BD000E02D2C960FB6F894DEBF0FBECDBFDF917F
:101BE000CF911F910F91FF90EF900994CF92DF92C8
:101BF000FF920F931F93CF93DF93DC0112966D91A9
:101C00007C91161617065CF067E070E080E0DF91CB
:101C1000CF911F910F91FF90DF90CF900895EC012D
:101C20001C8661307105E9F0625071090E945C09FF
:101C30006C01DC011396ED91FC91F0800181128121
:101C4000CF010E94A92BF60114821382DF82CE827B
:101C50008A819B8101979B838A836F2D702F812FAF
:101C6000D6CFEC81FD81F08001811281CF010E94ED
:101C7000A92B1D821C821F821E821B821A82EDCF1D
:101C8000CF92DF92FF920F931F93CF93DF93DC01EC
:101C900012962D913C911397121613065CF067E093
:101CA00070E080E0DF91CF911F910F91FF90DF9066
:101CB000CF90089521303105B9F0EC01EC81FD8120
:101CC000C380D480F08001811281CF010E94A92BB2
:101CD000DD82CC828A819B8101979B838A831C86CB
:101CE0006F2D702F812FDECFED91FC910088F1894F
:101CF000E02DDF91CF911F910F91FF90DF90CF905A
:101D00000994CF92DF92EF92FF920F931F93CF939C
:101D1000DF93DC0112966D917C91161617066CF01C
:101D200060E070E080E090E0DF91CF911F910F9133
:101D3000FF90EF90DF90CF900895EC011C8661300A
:101D40007105E9F0625071090E94AE096C01DC0175
:101D50001496ED91FC91E080F18002811381CF0116
:101D60000E94A92BF60115821482DF82CE828A811D
:101D70009B8101979B838A83B701C801D5CFEC81F2
:101D8000FD81E080F18002811381CF010E94A92BA7
:101D90001D821C821F821E821B821A82EDCFCF926F
:101DA000DF92EF92FF920F931F93CF93DF93DC01AB
:101DB00012962D913C911397121613066CF060E069
:101DC00070E080E090E0DF91CF911F910F91FF9044
:101DD000EF90DF90CF90089521303105B9F0EC01FC
:101DE000EC81FD81C480D580E080F1800281138187
:101DF000CF010E94A92BDD82CC828A819B81019731
:101E00009B838A831C86B701C801DDCFED91FC91CD
:101E10000088F189E02DDF91CF911F910F91FF9004
:101E2000EF90DF90CF9009940F931F93CF93DF93A0
:101E3000CDB7DEB72C970FB6F894DEBF0FBECDBF7F
:101E400077FD08C0DC0112962D913C911397621723
:101E500073071CF186E0FE013196DF01982F1D9279
:101E60009A95E9F791E09E83DE01179601900D9215
:101E70008A95E1F72F81388549855A856B857C8560
:101E800080E090E02C960FB6F894DEBF0FBECDBF79
:101E9000DF91CF911F910F9108956115710581F424
:101EA000ED91FC910288F389E02D2C960FB6F89401
:101EB000DEBF0FBECDBFDF91CF911F910F9109946F
:101EC000215031092617370731F4ED91FC91008834
:101ED000F189E02DEACF8C01615071090E94F6086A
:101EE0009C01FC018681978146E0FC01DE01119690
:101EF00001900D924A95E1F7DC0116964D915C91A7
:101F0000F901578346830E94A92BD80112968D911F
:101F10009C911397019713969C938E9312971C96FE
:101F20001C9286E0FE0131969FCFFF920F931F9384
:101F3000CF93DF9377FD08C0DC0112962D913C9181
:101F40001397621773074CF067E070E080E0DF9151
:101F5000CF911F910F91FF9008956115710559F46C
:101F6000ED91FC910288F389E02DDF91CF911F91D3
:101F70000F91FF900994215031092617370731F44A
:101F8000ED91FC910088F189E02DEFCFEC016150DB
:101F900071090E945C09DC011396ED91FC91149784
:101FA000F080018112812381348114963C932E9319
:101FB0001397CF010E94A92B8A819B8101979B8354
:101FC0008A831C866F2D702F812FC1CFEF92FF92D5
:101FD0000F931F93CF93DF9377FD08C0DC01129618
:101FE0002D913C911397621773075CF060E070E0ED
:101FF00080E090E0DF91CF911F910F91FF90EF90E3
:1020000008956115710561F4ED91FC910288F389E1
:10201000E02DDF91CF911F910F91FF90EF900994E8
:10202000215031092617370731F4ED91FC910088D2
:10203000F189E02DEECFEC01615071090E94AE09EB
:10204000DC011496ED91FC911597E080F1800281FE
:1020500013812481358115963C932E931497CF01DB
:102060000E94A92B8A819B8101979B838A831C866E
:10207000B701C801BFCFCF92DF92EF92FF920F93CB
:102080001F93CF93DF9300D000D000D0CDB7DEB741
:1020900009831A832B833C834D835E83DC01129674
:1020A0002D913C91139762177307CCF0ED91FC9141
:1020B0000084F185E02D98014B815C816D817E81EA
:1020C00026960FB6F894DEBF0FBECDBFDF91CF913D
:1020D0001F910F91FF90EF90DF90CF9009946115C1
:1020E000710541F4ED91FC910284F385E02D298185
:1020F0003A81E2CF8B016C0188E090E00E940D2BC9
:102100007C0188E0F70111928A95E9F7D7011496CE
:102110001C92149781E015968C93B8016150710957
:10212000C6010E94F60826E0FE013196D701019013
:102130000D922A95E1F7FC0126813781D701179688
:102140003C932E931697F782E682F6018281938163
:10215000019693838283148681E026960FB6F894C5
:10216000DEBF0FBECDBFDF91CF911F910F91FF90CA
:10217000EF90DF90CF900895CF92DF92EF92FF9291
:102180000F931F93CF93DF93DC0112960D911C9157
:1021900013970115110571F4ED91FC910084F185FF
:1021A000E02DDF91CF911F910F91FF90EF90DF9085
:1021B000CF9009946A017B01EC0186E090E00E94D7
:1021C0000D2B2C813D81FC0135832483C082D1827B
:1021D000E282F3829D838C830F5F1F4F1B830A83F0
:1021E0001C8681E0DF91CF911F910F91FF90EF90BE
:1021F000DF90CF900895AF92BF92CF92DF92EF928F
:10220000FF920F931F93CF93DF93DB01BA01A901D4
:10221000EC01EA81FB81AE17BF0784F0E881F98108
:102220000084F185E02DDF91CF911F910F91FF90F8
:10223000EF90DF90CF90BF90AF900994109731F45A
:10224000E881F9810284F385E02DEDCF69017B01FE
:102250008D0186E090E00E940D2B5C0186E0F50187
:1022600011928A95E9F7B80161507109CE010E9477
:10227000AE09D501CD92DD92ED92FC921397FC014F
:102280002481358115963C932E931497B582A482B0
:102290008A819B8101969B838A831C8681E0DF91E2
:1022A000CF911F910F91FF90EF90DF90CF90BF9053
:1022B000AF900895CF92DF92EF920F931F93CF9339
:1022C000DF93DC0112960D911C91139701151105F6
:1022D00069F4ED91FC910084F185E02DDF91CF91BF
:1022E0001F910F91EF90DF90CF9009946A01E62E35
:1022F000EC0185E090E00E940D2B2C813D81FC01DA
:1023000034832383C082D182E2829D838C830F5FDA
:102310001F4F1B830A831C8681E0DF91CF911F91A1
:102320000F91EF90DF90CF9008956F927F928F92F0
:10233000EF92FF920F931F93CF93DF93DC011296DE
:10234000ED91FC9113976E177F078CF0ED91FC9146
:102350000084F185E02D642FA901DF91CF911F91B9
:102360000F91FF90EF908F907F906F90099461157F
:10237000710531F4ED91FC910284F385E02DEBCFF2
:102380003901842E8B01EC0185E090E00E940D2B39
:102390007C0185E0F70111928A95E9F787E0D70182
:1023A0008C93B80161507109CE010E945C09F7015C
:1023B000608271828282DC0113962D913C91149788
:1023C000348323831496FC92EE9213978A819B8127
:1023D00001969B838A831C8681E0DF91CF911F91B8
:1023E0000F91FF90EF908F907F906F900895EF92F4
:1023F000FF920F931F93CF93DF9300D000D000D0B4
:10240000CDB7DEB729833A834B835C836D837E83AC
:10241000DC011296ED90FC901397E114F10491F415
:10242000ED91FC910084F185E02D26960FB6F8948D
:10243000DEBF0FBECDBFDF91CF911F910F91FF90F7
:10244000EF9009948C0188E090E00E940D2BF80138
:1024500024813581DC0117963C932E93169726E054
:10246000FE01319601900D922A95E1F7F8019583CE
:102470008483FFEFEF1AFF0AD8011396FC92EE92C5
:1024800012971C961C9281E026960FB6F894DEBF38
:102490000FBECDBFDF91CF911F910F91FF90EF90B5
:1024A00008950F931F93CF93DF9300D000D000D0F7
:1024B000CDB7DEB78C0129833A834B835C836D8370
:1024C0007E8388E090E00E940D2B28E0DC011D92C5
:1024D0002A95E9F726E0FE013196DC0101900D9284
:1024E0002A95E1F7F80124813581232B11F106802B
:1024F000F781E02D97838683D80117969C938E935E
:102500001697D80112968D919C9113970196139668
:102510009C938E9312971C961C9281E026960FB680
:10252000F894DEBF0FBECDBFDF91CF911F910F9109
:1025300008959583848397838683E3CFCF92DF9238
:10254000EF92CF93DF93EC016A01E62E85E090E0F5
:102550000E940D2B25E0FC0111922A95E9F7FC0160
:10256000C082D182E2822C813D81232B99F0EE81C1
:10257000FF81948383839F838E838A819B810196CD
:102580009B838A831C8681E0DF91CF91EF90DF905F
:10259000CF9008959D838C83EECFCF92DF92EF9200
:1025A000FF92CF93DF93EC016A017B0186E090E01C
:1025B0000E940D2B26E0FC0111922A95E9F7FC01FF
:1025C000C082D182E282F3822C813D81232BA1F053
:1025D000EE81FF81958384839F838E838A819B8193
:1025E00001969B838A831C8681E0DF91CF91FF90C7
:1025F000EF90DF90CF9008959D838C83EDCFFC0109
:1026000080819181009711F00C94C42960E070E002
:10261000CB010895AF92BF92CF92DF92EF92FF92DB
:102620000F931F93CF93DF93DC01CD90DC90119734
:10263000C114D10439F01496CD91DC918C0176014E
:10264000209761F4DF91CF911F910F91FF90EF9050
:10265000DF90CF90BF90AF90089575015701BFEF05
:10266000AB1ABB0AF7018081082E000C990B0E945F
:102670002E2A892B91F72197CC0DDD1D8881082EFC
:10268000000C990B0E942E2A892B29F0CE15DF050C
:1026900010F02197F3CFAE014F5F5F4F4E195F09E6
:1026A000D80115965C934E931497CE14DF0420F452
:1026B000B701C6010E94EF2CD801ED91FC91119752
:1026C00014968D919C91E80FF91F1082BBCFCF9388
:1026D000DF93FC01248135814217530788F4C081C0
:1026E000D181062E000C770BCE01840F951F0E941E
:1026F000F82C009729F08C1B9D0BDF91CF9108954A
:102700008FEF9FEFFACFFC0124813581232B39F421
:1027100021E0FB018081882349F020E007C080810F
:1027200091810E94032D21E0892BB9F7822F089512
:102730000F931F93CF93DF938C01EB01FC018081FA
:1027400091810097E1F06881798161157105A9F0A7
:10275000428153812C813D814217530770F00E94C2
:102760000C2D8C819D81F801958384831D821C82B0
:10277000DF91CF911F910F9108950E94A92B88811D
:102780009981F801918380838A819B8193838283DD
:102790008C819D8195838483198218821B821A8281
:1027A000E5CF0F931F93CF93DF93EC01888199813D
:1027B000009759F02A813B812617370730F081E0D6
:1027C000DF91CF911F910F9108958B016F5F7F4F24
:1027D0000E94322C009759F0998388831B830A83C7
:1027E0002C813D81232B59F7FC011082E8CF80E03A
:1027F000E7CFEF92FF920F931F93CF93DF93611573
:10280000710541F480E0DF91CF911F910F91FF900E
:10281000EF90089541155105B1F07B01EC010C8159
:102820001D81040F151FB8010E94D113882351F395
:10283000288139818C819D81B701820F931F0E946D
:102840000C2D1D830C8381E0DECFEF92FF920F935E
:102850001F93CF93DF9300D000D000D01F92CDB74D
:10286000DEB77C01CB014AE08E010F5F1F4FB8013C
:102870000E94142AF80101900020E9F73197AF0176
:10288000401B510BB801C7010E94F913811103C00D
:10289000C7010E94870CC70127960FB6F894DEBFC8
:1028A0000FBECDBFDF91CF911F910F91FF90EF90A1
:1028B0000895EF92FF920F931F93CF93DF93CDB7BD
:1028C000DEB728970FB6F894DEBF0FBECDBF7C01F0
:1028D000CB014AE08E010F5F1F4FB8010E94F4291F
:1028E000F80101900020E9F73197AF01401B510B2F
:1028F000B801C7010E94F913811103C0C7010E94EA
:10290000870CC70128960FB6F894DEBF0FBECDBF67
:10291000DF91CF911F910F91FF90EF900895EF926B
:10292000FF920F931F93CF93DF9300D000D0CDB7CA
:10293000DEB77C01862F4AE08E010F5F1F4FB80182
:1029400090E00E94F429F80101900020E9F7319706
:10295000AF01401B510BB801C7010E94F91381114F
:1029600003C0C7010E94870CC7010F900F900F9002
:102970000F90DF91CF911F910F91FF90EF900895ED
:10298000CF93DF93EC016115710539F4CE010E94FC
:10299000870CCE01DF91CF910895FB0101900020BB
:1029A000E9F73197AF01461B570B0E94F9138823B3
:1029B00069F3EFCFEF92FF920F931F93CF93DF93C3
:1029C000EC017B018A01BA010E94D11381110BC075
:1029D000CE010E94870CCE01DF91CF911F910F9104
:1029E000FF90EF9008951D830C83B7018881998132
:1029F0000E940C2DF0CFEF92FF920F931F93CF9375
:102A0000DF93CDB7DEB761970FB6F894DEBF0FBE88
:102A1000CDBF8C01CB01F80111821082138212828A
:102A2000158214824AE09E012F5F3F4F7901B90160
:102A30000E94142AF70101900020E9F73197AF01B5
:102A40004E195F09B701C8010E94DA1461960FB6EA
:102A5000F894DEBF0FBECDBFDF91CF911F910F91D4
:102A6000FF90EF900895FB01DC0111961C921E92DD
:102A700013961C921E92129715961C921E921497F2
:102A80008617970749F0608171816115710521F002
:102A9000448155810C94DA140895FC01118210824E
:102AA00013821282158214826115710551F0FB01A7
:102AB00001900020E9F73197AF01461B570B0C94AA
:102AC000DA1408950F931F93CF93DF9300D0CDB7FF
:102AD000DEB78C0166EA71E00E944D150E943B034F
:102AE00097FD0EC08A30910559F089831A8241E022
:102AF00050E0BE016F5F7F4FC8010E94F913EECF17
:102B0000C8010F900F90DF91CF911F910F91089501
:102B1000AF92BF92CF92DF92EF92FF920F931F93EB
:102B2000CF93DF937C016B015A018901241735078C
:102B300020F48B2D5901042F182F66EA71E0C7018C
:102B40000E944D15D6011496CD91DC91AC16BD06B0
:102B500020F50C171D0708F4E801D601ED91FC9152
:102B60001197EC0FFD1F108110826D917C916A0D01
:102B70007B1D61157105E9F0FB0101900020E9F76B
:102B80003197AF01461B570BC7010E94DA14F601BB
:102B900080819181C80FD91F1883C701DF91CF9120
:102BA0001F910F91FF90EF90DF90CF90BF90AF906B
:102BB0000895C7010E94870CEACF3F924F925F921F
:102BC0006F927F928F929F92AF92BF92CF92DF923D
:102BD000EF92FF920F931F93CF93DF93CDB7DEB7A2
:102BE0006A970FB6F894DEBF0FBECDBFCE01019637
:102BF0000E948E0B8C818F71582E8D818F73482E81
:102C0000CE0101960E948E0BCE0101960E94B00566
:102C10007A8F698FCE0143960E948E0B912C812C66
:102C2000052D10E04CE3742EE42CF12C50EAA52E77
:102C300055E0B52E8091B7049091B8048816990696
:102C40000CF042C0B40185EB94E00E94400A282FAA
:102C50002F716801C21AD1087C9CA0017D9C500D87
:102C60001124282F229526952770392F3770330F7E
:102C7000330F330F232BF701E21BF1099F01FA01F8
:102C8000E20FF31F2091C2043091C304260F371FB7
:102C9000498D5A8D421B530B4A9D90014B9D300D1F
:102CA0005A9D300D1124CF01820F931F97FD08C04C
:102CB000B40185EB94E00E94E60FF1E08F1A9108D1
:102CC0002FEF821A920AB6CF10E000E0652C712C2B
:102CD0002CE3322EA42CB12C30EA832E35E0932E37
:102CE0008091AA049091AB04081719070CF0A3C0B7
:102CF000B80188EA94E00E94330A972F298D3A8D13
:102D000050E040E070E0FB01022E02C0F595E7952F
:102D10000A94E2F7E0FF63C09F719301291B310918
:102D2000329E7001339EF00C112486958F73F5014D
:102D3000E81BF109EE0EFF1E489DC001499D900D54
:102D4000589D900D1124E80EF91EFEEFEF16FFEFCF
:102D5000FF0609F053C0B80188EA94E00E94950F7D
:102D60000150110967EA71E0CE010D960E944D15E0
:102D70006EEB71E0CE0101960E944D15BE016F5FB2
:102D80007F4FCE0107960E94331561E070E0CE01BF
:102D900007960E94251467EC71E00E94C0147C0124
:102DA00049895A896D857E850E94F913811103C076
:102DB000C7010E94870CB70183ED93E00E94460C87
:102DC000CE0107960E94990CCE0101960E94990CA3
:102DD000CE010D960E94990C0F5F1F4F81CF463098
:102DE000510509F4B8CF2115310529F021503109D9
:102DF0004F5F5F4F88CF26E030E0FACF1E141F04EC
:102E00005CF7CE0143960E94B0053E9C90013F9C2A
:102E1000300D1124032E000C440B550B6B017C016B
:102E2000C21AD30AE40AF50AB701A601CE01019637
:102E30000E941906D1CF10E000E0A52CB12C8CE344
:102E4000982E512C90EAE92E95E0F92E80919D0460
:102E500090919E04081719070CF08DC0B8018BE9FA
:102E600094E00E94030A762E872E2F8338874987A5
:102E70005A876B877C87842F829586958770452F2C
:102E80004370440F440F440F482BC501841B910924
:102E9000989E9001999E300D112456955695C20129
:102EA000851B9109280F391F8F8198854091C20495
:102EB0005091C304840F951F498D5A8D481B590B9F
:102EC0004E9DC0014F9D900D5E9D900D1124280FC9
:102ED000391F37FD3EC0E82DF0E0C901B7010E945F
:102EE000D12ACB01BF010E94BD2A76161706A1F197
:102EF00098F1EE9DC001EF9D900DFE9D900D112467
:102F0000869FA001879F500D969F500D1124241B72
:102F1000350B812C2F3F3207E1F012161306CCF44B
:102F2000CE0143960E94B005AB01BC01CE010196D3
:102F30000E941906882069F0B8018BE994E00E948C
:102F4000140F2D873E874F87588B698B7A8B0150E2
:102F500011090F5F1F4F7ACF879CB00111246E9D1E
:102F6000C0016F9D900D7E9D900D1124281B390B83
:102F700088248394CFCF6A960FB6F894DEBF0FBE35
:102F8000CDBFDF91CF911F910F91FF90EF90DF9018
:102F9000CF90BF90AF909F908F907F906F905F90F9
:102FA0004F903F90089585ED8093BC008091AB03D6
:102FB0009091AC03A091AD03B091AE030796A11D13
:102FC000B11D23E0B695A795979587952A95D1F7DA
:102FD0002091BC0024FD03C01092A90308954091E4
:102FE000AB035091AC036091AD037091AE03452BE0
:102FF000462B472B69F30097A105B10541F02AE262
:103000002A95F1F700C00197A109B109E1CF80919C
:10301000AA030C94C003FF920F931F93CF93DF93E7
:10302000EC01F62E08811981C8010E944A2AF8167F
:1030300021F06F2DC8010E94522ACE01DF91CF915D
:103040001F910F91FF900895CF92DF92EF92FF9220
:103050000F931F93CF93DF9300D0CDB7DEB76C01F2
:103060007C010CE010E01A830983F70161917F0174
:10307000CE0101960E940B180F5F1F4F0031110502
:1030800091F7C6010F900F90DF91CF911F910F9193
:10309000FF90EF90DF90CF900895EF92FF920F9303
:1030A0001F93CF93DF9300D0CDB7DEB78C017B01A8
:1030B0009A838983FB016081CE0101960E940B18DF
:1030C0000F5F1F4F1A830983F7016181CE010196BB
:1030D0000E940B18C7010F900F90DF91CF911F91A5
:1030E0000F91FF90EF9008956F927F928F929F9231
:1030F000AF92BF92CF92DF92EF92FF920F931F9306
:10310000CF93DF93CDB7DEB760970FB6F894DEBFED
:103110000FBECDBF81E090E0A0E0B0E08B879C8740
:10312000AD87BE87CE010B960E9424188091B7040C
:103130009091B8049A8389838E010F5F1F4FB80165
:1031400090E080E00E944D184E0127E0820E911C15
:1031500080E190E07C01E818F908D12CC12C3E01F7
:103160003BE0630E711C5701A80CB91C8091B70499
:103170009091B804C816D906FCF4B60185EB94E02A
:103180000E94400A6F83788789879A875401C50116
:103190008E0D9F1D9A838983F50161915F01C8019E
:1031A0000E940B18A614B70491F7FFEFCF1ADF0A9D
:1031B00024E0E20EF11CD7CF80919D0490919E04F3
:1031C0009A838983B80188E090E00E944D18A01A84
:1031D000B10AF12CE12C480136E0830E911CC801A4
:1031E0008A0D9B1D20919D0430919E04E216F306EA
:1031F00014F5B7018BE994E00E94030A29833A830E
:103200004B835C836D837E836801C5018C0D9D1D9E
:10321000988B8F87F60161916F01CE010F960E9406
:103220000B188C149D0489F7FFEFEF1AFF0A26E0B4
:10323000A20EB11CD4CF03E213E0FC01E352F34031
:103240007F01C701800F911F988B8F87F8016191D3
:103250008F01CE010F960E940B18F3E00B351F076C
:1032600081F71B861C861D861E86CE010B960E944A
:10327000241860960FB6F894DEBF0FBECDBFDF9165
:10328000CF911F910F91FF90EF90DF90CF90BF9063
:10329000AF909F908F907F906F9008952F923F9264
:1032A0004F925F926F927F928F929F92AF92BF9256
:1032B000CF92DF92EF92FF920F931F93CF93DF9302
:1032C000CDB7DEB7A0970FB6F894DEBF0FBECDBF67
:1032D000D12C40EA242E45E0342E5CE3E52ECE01CD
:1032E00049960E946215CE0149960E940A1362ED2A
:1032F00071E0CE0101960E944D152D813E818D8D8C
:103300009E8D2817390709F589819A81698D7A8DF3
:10331000009759F06115710509F072C0232B09F46B
:1033200072C0FC01808190E00DC06115710509F447
:103330006AC0232B09F467C0DB018C9190E0919562
:103340008195910901E0892B09F000E0CE010196F9
:103350000E94990C002311F40C949A2268ED71E0FC
:103360008CE794E00E945A0C88EB9BE0A0E0B0E070
:103370008093800490938104A0938204B09383048B
:10338000CE0101960E946215BE016F5F7F4FCE0194
:1033900049960E949813CE0101960E94990CCE0185
:1033A00049960E940A1388EE93E0A0E0B0E0809373
:1033B000800490938104A0938204B0938304CE018F
:1033C00049960E94FF12623071058105910509F44A
:1033D00088C3DCF4611571058105910509F4A9C064
:1033E000613071058105910509F41BC310921D031D
:1033F00010921C03CE0149960E94990CD02E6FCFDB
:103400000E94032D9FCF01E0A1CF6430710581059B
:10341000910509F482C70CF489C5653071058105F1
:10342000910521F7CE0101960E946215BE016F5FE2
:103430007F4FCE0149960E949813CE0101960E94BB
:10344000990CCE0149960E940A1362EE71E0CE01FA
:1034500049960E948313882309F486C7B12CA12CB6
:103460008091B7049091B804A816B9060CF005C174
:10347000B50185EB94E00E94400A97FB882480F810
:10348000912C292F2695269526952F70C22ED12C6A
:103490002091C2043091C304260F371F229DA00142
:1034A000239D500D329D500D1124282F22952695D5
:1034B0002770392F3770330F330F330F232B420F01
:1034C000511D282F2F71CA01E29E800D911D1124DC
:1034D000E89EB001E99E700D1124CE0101960E9474
:1034E000FB14BE016F5F7F4FCE0107960E9433151C
:1034F0006EE272E0CE0107960E94C014B6010E94EF
:1035000025146EE272E00E94C014B4010E945914A6
:10351000BC018CE794E00E94460CCE0107960E9405
:10352000990CCE0101960E94990CBFEFAB1ABB0A11
:1035300097CFCE0101960E946215BE016F5F7F4F4B
:10354000CE0149960E949813CE0101960E94990CD3
:10355000CE0149960E940A1362EE71E0CE014996AF
:103560000E948313882309F4B0C0CE0101960E9403
:103570006215BE016F5F7F4FCE0149960E9498137E
:10358000CE0101960E94990CCE0149960E940A1321
:10359000D12CC12CB12CA12C4501A5016BE3CE018E
:1035A00049960E9467135C019C01A401BE01675EFD
:1035B0007F4FCE0107960E948815C114D10409F0EF
:1035C00063C0CE0107960E94FF12AB01BC01CE0181
:1035D00001960E941906CE0101960E94B005209125
:1035E000C2043091C304621B730B6F8F78A38D816B
:1035F000982F9F734C808295880F807EA42DAF7189
:103600004A2E482A892F869586958695187F182BED
:10361000FFEFCF1ADF0ACE0107960E94990C2FEF19
:10362000A216B20609F0B8CFCE0101960E9462152B
:10363000BE016F5F7F4FCE0149960E949813CE0165
:1036400001960E94990CCE0149960E940A136AEED7
:1036500071E0CE0149960E948313882309F4DCC2ED
:1036600033E0C316D10409F0D7C24F8D58A1642DA1
:10367000712F85EB94E00E94CD1261EF71E08CE731
:1036800094E00E945A0CB2CEB1E0CB16D10459F4AA
:10369000CE0107960E94FF126F70660F660F660FCD
:1036A0001778162BB5CFE2E0CE16D10409F0B0CFD3
:1036B000CE0107960E94FF1221E0672B682B692B31
:1036C00009F420E020FB17F9A3CF67EB71E0CE01EE
:1036D00049960E948313882309F4D2C0CE01019633
:1036E0000E946215BE016F5F7F4FCE0149960E9416
:1036F0009813CE0101960E94990CCE0149960E9422
:103700000A1337E0532ED12CC12CB12CA12C45012A
:10371000A5016BE3CE0149960E9467135C019C01F1
:10372000A401BE01675E7F4FCE0101960E948815FD
:10373000C114D104C9F5CE0101960E94FF12562E84
:103740003FEFC31AD30ACE0101960E94990C8FEF66
:10375000A816B806E1F6CE0101960E946215BE01D8
:103760006F5F7F4FCE0149960E949813CE0101965C
:103770000E94990CCE0149960E940A136AEE71E0EC
:10378000CE0149960E948313882309F445C293E031
:10379000C916D10409F040C2452D572D6F2D88EA76
:1037A00094E00E949E1269CF81E0C816D104D9F539
:1037B00050E040E06AE3CE0101960E9467134C019D
:1037C0002D813E81AC01BE016F5F7F4FCE010D9612
:1037D0000E948815CE010D960E94FF12662E94015C
:1037E00050E040E0BE016F5F7F4FCE0107960E9420
:1037F0008815CE0107960E94FF126F71972D907E5B
:10380000792E762AA62DAF736A2E660CBF2DB1785D
:10381000FB2EF628CE0107960E94990CCE010D963C
:103820000E94990C8DCFE2E0CE16D104B1F4CE0106
:1038300001960E94FF12262F2295220F207EF72D3F
:10384000FF717F2E722A23E096958795779567956D
:103850002A95D1F760FBF0F873CF23E0C216D104AC
:1038600009F06ECFCE0101960E94FF12672B682BE4
:10387000692B19F06894F7F863CFE894F7F860CFF4
:1038800069EF71E0CE0149960E948313882309F401
:10389000C3C1CE0101960E946215BE016F5F7F4FCA
:1038A000CE0149960E949813CE0101960E94990C70
:1038B000CE0149960E940A13198A81E08A8BD12C85
:1038C000C12CB12CA12C4501A5016BE3CE01499679
:1038D0000E9467135C019C01A401BE01675E7F4FDB
:1038E000CE0107960E948815C114D10409F061C069
:1038F000CE0107960E94FF12AB01BC01CE010196DA
:103900000E941906CE0101960E94B0052091C204C2
:103910003091C304621B730B6D871E862D818C81D1
:10392000382F3295330F307E9F859F71932B9F8761
:10393000869586958695922F990F990F8370892B7E
:10394000888B2FEFC21AD20ACE0107960E94990CDB
:103950003FEFA316B30609F0B6CFCE0101960E9441
:103960006215BE016F5F7F4FCE0149960E9498138A
:10397000CE0101960E94990CCE0149960E940A132D
:103980006AEE71E0CE0149960E948313882309F400
:1039900043C183E0C816D10409F03EC12D853E85A0
:1039A0004F85588969897A898BE994E00E94511280
:1039B00064CEA1E0CA16D10431F4CE0107960E946C
:1039C000FF12698BBECFB2E0CB16D10431F4CE0129
:1039D00007960E94FF126A8BB4CFE3E0CE16D104A3
:1039E00059F4CE0107960E94FF12862F8F706F85C3
:1039F000607F682B6F87A5CFF4E0CF16D10409F064
:103A0000A0CFCE0107960E94FF122F85672B682B4F
:103A1000692B21F0822F80618F8793CF822F8F7E39
:103A2000FBCFCE0101960E946215BE016F5F7F4FF2
:103A3000CE0149960E949813CE0101960E94990CDE
:103A4000CE0149960E940A13CE0101960E9462158A
:103A5000CE0149960E940A1362EE71E0CE014996AA
:103A60000E948313882399F0CE0101960E94FF12D1
:103A700085EB94E00E94E60F61EF71E08CE794E043
:103A80000E945A0CCE0101960E94990CAFCC67EBB4
:103A900071E0CE0149960E948313882349F0CE013C
:103AA00001960E94FF1288EA94E00E94950FE4CFED
:103AB00067E072E0CE0149960E94831361E172E0F3
:103AC0008823E1F2CE0101960E94FF128BE994E077
:103AD0000E94140F2B8B3C8B4D8B5E8B6F8B788FE2
:103AE000CBCFCE0101960E946215BE016F5F7F4F62
:103AF000CE0149960E949813CE0101960E94990C1E
:103B0000CE0149960E940A1362EE71E0CE014996F9
:103B10000E948313882309F482C0CE0101960E947B
:103B20006215BE016F5F7F4FCE0149960E949813C8
:103B3000CE0101960E94990CCE0149960E940A136B
:103B4000CE0149960E94FF1285EB94E00E94400A44
:103B5000CE0101960E946215BE016F5F7F4FCE01BC
:103B600049960E949813CE0101960E94990CCE01AD
:103B700049960E940A13B12CA12CD12CC12C4601CC
:103B8000A6016BE3CE0149960E9467136C019C016C
:103B9000A401BE01675E7F4FCE0107960E94881583
:103BA000A114B10471F4CE0107960E94FF12AB017B
:103BB000BC01CE0101960E941906CE0101960E9419
:103BC000B0059FEFA91AB90ACE0107960E94990C79
:103BD000AFEFCA16DA0699F6CE0101960E94621579
:103BE000BE016F5F7F4FCE0149960E949813CE01B0
:103BF00001960E94990CCE0149960E940A136AEE22
:103C000071E0CE0149960E948313882329F0B3E026
:103C1000AB16B10409F431CD62E072E030CD67EB50
:103C200071E0CE0149960E948313882309F499C05C
:103C3000CE0101960E946215BE016F5F7F4FCE01DB
:103C400049960E949813CE0101960E94990CCE01CC
:103C500049960E940A13CE0149960E94FF1288EAF3
:103C600094E00E94330ACE0101960E946215BE01C3
:103C70006F5F7F4FCE0149960E949813CE01019647
:103C80000E94990CCE0149960E940A13B12CA12CD6
:103C9000D12CC12C4601A6016BE3CE0149960E94AE
:103CA00067136C019C01A401BE01675E7F4FCE01CA
:103CB00001960E948815E1E0AE16B10421F550E0AE
:103CC00040E06AE3CE0101960E9467134C012D810A
:103CD0003E81AC01BE016F5F7F4FCE010D960E9409
:103CE0008815940150E040E0BE016F5F7F4FCE0128
:103CF00007960E948815CE0107960E94990CCE0166
:103D00000D960E94990CFFEFAF1ABF0ACE010196E3
:103D10000E94990C2FEFC216D20609F0BBCFCE013C
:103D200001960E946215BE016F5F7F4FCE014996DA
:103D30000E949813CE0101960E94990CCE014996DB
:103D40000E940A136AEE71E0CE0149960E94831325
:103D5000882309F461CF33E0A316B10409F05CCFE6
:103D60008CCC69EF71E0CE0149960E9483138823C1
:103D700009F452CFCE0101960E946215BE016F5F19
:103D80007F4FCE0149960E949813CE0101960E9462
:103D9000990CCE0149960E940A13CE0149960E94C1
:103DA000FF128BE994E00E94030A2D873E874F871C
:103DB000588B698B7A8BCE0101960E946215BE01E9
:103DC0006F5F7F4FCE0149960E949813CE010196F6
:103DD0000E94990CCE0149960E940A13D12CC12C45
:103DE000B12CA12C4501A5016BE3CE0149960E949F
:103DF00067135C019C01A401BE01675E7F4FCE0189
:103E000007960E948815C114D10409F057C0CE014D
:103E100007960E94FF12AB01BC01CE0101960E94E1
:103E20001906CE0101960E94B0052091C20430917E
:103E3000C304621B730B6D871E862D818C81382F06
:103E40003295330F307E9F859F71932B9F87869588
:103E500086958695922F990F990F8370892B888B61
:103E6000EFEFCE1ADE0ACE0107960E94990CFFEF03
:103E7000AF16BF0609F0B6CFCE0101960E946215BB
:103E8000BE016F5F7F4FCE0149960E949813CE010D
:103E900001960E94990CCE0149960E940A136AEE7F
:103EA00071E0CE0149960E948313882309F4B4CEB1
:103EB00023E0C216D10409F0AFCE70CD81E0C81660
:103EC000D10431F4CE0107960E94FF12698BC8CF4E
:103ED00092E0C916D10431F4CE0107960E94FF1278
:103EE0006A8BBECFA3E0CA16D10459F4CE0107965F
:103EF0000E94FF12862F8F706F85607F682B6F87FF
:103F0000AFCFB4E0CB16D10409F0AACFCE0107960B
:103F10000E94FF122F85672B682B692B21F0822FBF
:103F200080618F879DCF822F8F7EFBCFCE01019640
:103F30000E946215BE016F5F7F4FCE0149960E94BD
:103F40009813CE0101960E94990CCE0149960E94C9
:103F50000A1368E172E0CE0149960E948313882318
:103F600009F4C9C061E084E00E949D006CE172E048
:103F70008CE794E00E94370CCE0107960E946215F0
:103F8000CE0107960E940A138B859C85892B79F4B4
:103F9000CE0101960E946215BE016F5F7F4FCE0178
:103FA00007960E949813CE0101960E94990CCE01AB
:103FB00007960E940A1360E084E00E949D00CB8473
:103FC000DC84C114D10409F48CC050E040E06AE301
:103FD000CE0107960E9467139601AC01BE01695F8E
:103FE0007F4FCE0101960E948815C980DA80CE01EC
:103FF00001960E94990CCE0107960E94990C61E0EF
:1040000084E00E949D0065E272E08CE794E00E94EB
:10401000370CCE0107960E946215CE0107960E94CA
:104020000A138B859C85892B79F4CE0101960E9419
:104030006215BE016F5F7F4FCE0107960E949813F5
:10404000CE0101960E94990CCE0107960E940A1398
:1040500060E084E00E949D00AB84BC84A114B104A4
:1040600009F444C050E040E06AE3CE0107960E94A4
:1040700067139501AC01BE01695F7F4FCE010196C8
:104080000E948815A980BA80CE0101960E94990CE1
:10409000CE0107960E94990CB501CE0101960E94AF
:1040A0004D15BE016F5F7F4FCE0107960E943315FD
:1040B0006EE272E0CE0107960E94C014B6010E9423
:1040C000C014DC016D917C918CE794E00E945A0C45
:1040D000CE0107960E94990CCE0101960E94990C80
:1040E000CCCA9AECC92E91E0D92E85CF8AECA82EA5
:1040F00081E0B82ECDCF64E472E0CE0149960E94F3
:104100008313882309F4CEC0CE0101960E94621564
:10411000BE016F5F7F4FCE0149960E949813CE017A
:1041200001960E94990CCE0149960E940A1350E014
:1041300040E06BE3CE0149960E9467136C019C013D
:1041400050E040E0BE01675E7F4FCE010D960E94B9
:104150008815AD84BE8461E084E00E949D0060E328
:1041600072E0CE0107960E944D15BE01695F7F4F38
:10417000CE0101960E943315B501CE0101960E9431
:10418000C014BC018CE794E00E947401CE0101963A
:104190000E94990CCE0107960E94990CCE010796B9
:1041A0000E946215CE0107960E940A138B859C859A
:1041B000892B79F4CE0101960E946215BE016F5FD2
:1041C0007F4FCE0107960E949813CE0101960E9460
:1041D000990CCE0107960E940A1360E084E00E94C9
:1041E0009D00CE0107960E94990CCE010D960E946B
:1041F000990C2D8D3E8DA601BE01675E7F4FCE01CD
:104200000D960E948815CD84DE8461E084E00E94D2
:104210009D0069E372E0CE0107960E944D15BE0134
:10422000695F7F4FCE0101960E943315B601CE0122
:1042300001960E94C014BC018CE794E00E947401B6
:10424000CE0101960E94990CCE0107960E94990C0E
:10425000CE0107960E946215CE0107960E940A13AE
:104260008B859C85892B79F4CE0101960E9462157D
:10427000BE016F5F7F4FCE0107960E949813CE015B
:1042800001960E94990CCE0107960E940A1360E0E5
:1042900084E00E949D00CE0107960E94990CCE01F9
:1042A0000D961CCF62E472E0CE0149960E94831302
:1042B000882381F161E084E00E949D0068E472E05F
:1042C0008CE794E00E94370CCE0107960E9462159D
:1042D000CE0107960E940A138B859C85892B79F461
:1042E000CE0101960E946215BE016F5F7F4FCE0125
:1042F00007960E949813CE0101960E94990CCE0158
:1043000007960E940A1360E084E00E949D00CE019F
:104310000796E4CE61E172E0B2C9CE0101960E9437
:104320006215BE016F5F7F4FCE0149960E949813C0
:10433000CE0101960E94990CCE0149960E940A1363
:10434000CE0101960E946215BE016F5F7F4FCE01C4
:1043500049960E949813CE0101960E94990CCE01B5
:1043600049960E940A1389C967EB71E0CE0149960C
:104370000E948313882309F466C0B12CA12C80917C
:10438000AA049091AB04A816B9060CF076C9B50141
:1043900088EA94E00E94330A282F082E000C330B81
:1043A000632E661C6624661C972F929596959770CF
:1043B000E82FE170CE2ECC0CCC0CCC0CC92AD12C21
:1043C000982E9694F92DFF739F2E7F71872E70E0A3
:1043D000CE0101960E94FB14BE016F5F7F4FCE019C
:1043E00007960E9433156EE272E0CE0107960E9496
:1043F000C014682D0E948F1460E572E00E94C01402
:10440000692D0E948F146EE272E00E94C014B60102
:104410000E9425146EE272E00E94C014662D70E0C6
:104420000E945914BC018CE794E00E94460CCE0116
:1044300007960E94990CCE0101960E94990C2FEFCD
:10444000A21AB20A9CCF69EF71E0CE0149960E9490
:104450008313882309F45ECFD12CC12C80919D0455
:1044600090919E04C816D9060CF007C9B6018BE9D5
:1044700094E00E94030A29833A834B835C836D8313
:104480007E8344FB992490F8842F8F70A82EB12C42
:104490002091C2043091C30489819A81280F391F69
:1044A000229DC001239D900D329D900D1124252F3A
:1044B00026952695820F911D42954695477053701B
:1044C000550F550F550F542BE59E800D911D11244E
:1044D000E89EB001E99E700D1124CE0107960E945E
:1044E000FB14BE01695F7F4FCE010D960E9433150C
:1044F0006EE272E0CE010D960E94C014B5010E94DA
:1045000025146EE272E00E94C014692D70E00E94D2
:104510005914BC018CE794E00E94460CCE010D9624
:104520000E94990CCE0107960E94990C3FEFC31A86
:10453000D30A94CFD1100E947418CE0149960E94DC
:10454000990CA0960FB6F894DEBF0FBECDBFDF91D9
:10455000CF911F910F91FF90EF90DF90CF90BF9080
:10456000AF909F908F907F906F905F904F903F9013
:104570002F9008951F920F920FB60F9211242F9330
:104580003F938F939F93AF93BF9380915B039091E1
:104590005C03A0915D03B0915E0330911E0323E0A4
:1045A000230F2D3758F50196A11DB11D20931E0331
:1045B00080935B0390935C03A0935D03B0935E03D1
:1045C00080911F0390912003A0912103B0912203B9
:1045D0000196A11DB11D80931F0390932003A0930A
:1045E0002103B0932203BF91AF919F918F913F918F
:1045F0002F910F900FBE0F901F90189526E8230F54
:104600000296A11DB11DD2CF1F920F920FB60F922D
:1046100011242F933F934F935F936F937F938F93C7
:104620009F93AF93BF93EF93FF9383ED93E00E942B
:104630000002FF91EF91BF91AF919F918F917F9178
:104640006F915F914F913F912F910F900FBE0F90FF
:104650001F9018951F920F920FB60F9211242F934F
:104660008F939F93EF93FF93E091E303F091E40323
:104670008081E091E903F091EA0382FD1BC0908103
:104680008091EC038F5F8F732091ED03821741F0CF
:10469000E091EC03F0E0ED52FC4F958F8093EC033A
:1046A000FF91EF919F918F912F910F900FBE0F90DF
:1046B0001F9018958081F4CF1F920F920FB60F9222
:1046C00011242F933F934F935F936F937F938F9317
:1046D0009F93AF93BF93EF93FF93E0911603F091F5
:1046E0001703309749F0A685B7858585968D91FF8C
:1046F00014C09C918923A1F4FF91EF91BF91AF91D8
:104700009F918F917F916F915F914F913F912F91E9
:104710000F900FBE0F901F9018959C91892361F701
:10472000A389B4899C918589809589238C938689F6
:1047300097890197F1F7608D718DA685B7855585AD
:1047400038E020E0CB010197F1F7822F90E09595BA
:104750008795282F4C91452309F02068315091F717
:10476000868D81FD20958091150390E001968F73D1
:10477000992730911403381799F0A0911503B0E0F0
:10478000A053BD4F2C9380931503828D938D019779
:10479000F1F7A389B4898C919589892B8C93ACCF3F
:1047A000868D8160868FF1CF1F920F920FB60F9288
:1047B00011242F933F934F935F936F937F938F9326
:1047C0009F93AF93BF93EF93FF938091B900887F3E
:1047D000803609F44AC0F0F5883209F4A7C018F50C
:1047E000803109F49BC0B8F4882309F4F9C08830FB
:1047F00009F494C0FF91EF91BF91AF919F918F9178
:104800007F916F915F914F913F912F910F900FBECC
:104810000F901F901895883109F488C0803251F7A5
:104820008093A70314C0803409F49DC040F4803302
:10483000B9F38833F9F68093A70385ECB0C08035CF
:1048400009F485C0883509F496C0883499F60E9429
:10485000D317D0CF883909F48CC038F5883729F0C0
:1048600050F4883611F0803729F683E08093A9034D
:104870001092CF0257C0883809F47BC0803919F0F4
:10488000803809F0B7CF8091CF02803208F071C034
:10489000E091CF0281E08E0F8093CF028091BB0028
:1048A000F0E0E155FD4F80833DC0803B39F0E0F4FE
:1048B000803A09F479C0883A09F09CCF84E080936B
:1048C000A9031092AE021092AD02E0911203F09192
:1048D000130309958091AD0281110FC081E080938F
:1048E000AD0210928D0209C0803C09F4A6CF883C2D
:1048F00009F4A3CF883B09F07DCFE091AE0281E0BF
:104900008E0F8093AE02F0E0E357FD4F80818093DD
:10491000BB009091AE028091AD0229C080918403CA
:104920008093BB0085EC8093BC0064CF9091A6037C
:104930008091A503981758F5E091A60381E08E0FAA
:104940008093A603F0E0EB57FC4F8081E9CFE09124
:10495000A60381E08E0F8093A6038091BB00F0E058
:10496000EB57FC4F80839091A6038091A503981785
:10497000C8F285E8D8CFE091A60381E08E0F80933E
:10498000A6038091BB00F0E0EB57FC4F8083809141
:10499000A80381115CCF81E08093830384EA809334
:1049A000BC001092A90326CF85EC8093BC00109226
:1049B000A9038091CF02803230F4E091CF02F0E081
:1049C000E155FD4F10826091CF0270E0E09110033D
:1049D000F09111038FEA92E009951092CF020ACF6D
:1049E0001092A70334CFFC01908190539A3008F0C5
:1049F00090E0818180532AE0929F800D11240895D8
:104A0000CF92DF92EF92FF921F93CF93DF9300D06C
:104A100000D000D0CDB7DEB71092D6031092D503E8
:104A200098EEC92E93E0D92EE12CF12CC092D70339
:104A3000D092D803E092D903F092DA0388E191E0B2
:104A40009093D4038093D30385EC90E09093E0039C
:104A50008093DF0384EC90E09093E2038093E10382
:104A600080EC90E09093E4038093E30381EC90E08A
:104A70009093E6038093E50382EC90E09093E80343
:104A80008093E70386EC90E09093EA038093E90338
:104A90001092EC031092ED031092EE031092EF03CC
:104AA0001092730410927204C0927404D092750430
:104AB000E0927604F09277048AE291E09093710498
:104AC0008093700484E189831A8211E01B831C8225
:104AD0001D821E82CE0101960E94B0057093C30410
:104AE0006093C2048AE891E09093B6048093B50481
:104AF0001092BA041092B9041092BC041092BB0434
:104B00001092B8041092B7041092BE041092BD0423
:104B10001092C0041092BF041092C1048CE691E080
:104B20009093A9048093A8041092AD041092AC0451
:104B30001092AF041092AE041092AB041092AA042B
:104B40001092B1041092B0041092B3041092B20407
:104B50001092B4048EE491E090939C0480939B04A3
:104B60001092A00410929F041092A2041092A1042B
:104B700010929E0410929D041092A4041092A3041B
:104B80001092A6041092A5041092A70410927F041C
:104B900010927E04C0928004D0928104E09282043C
:104BA000F09283048CE391E090937D0480937C04E5
:104BB000109293041092920410929504109294040F
:104BC00010929704109296041092990410929804EF
:104BD00080919A048E7F8D7F80939A0481FB662753
:104BE00060F9612783E00E949D0061E083E00E94FC
:104BF000E900E1EDF0E0E491E0938C04EDEBF0E00E
:104C0000E491F0E0EE0FFF1FE055FF4F8591949186
:104C100090938E0480938D0460E082E00E94E9000E
:104C200080919A0481FD04C061E082E00E949D00B1
:104C300082E080938804E0EDF0E0E491E093890461
:104C4000ECEBF0E0E491F0E0EE0FFF1FEA55FF4FD0
:104C50008591949190938B0480938A0426960FB645
:104C6000F894DEBF0FBECDBFDF91CF911F91FF90B3
:104C7000EF90DF90CF900895CF93DF93CDB7DEB75D
:104C800066970FB6F894DEBF0FBECDBF789484B59B
:104C9000826084BD84B5816084BD85B5826085BD38
:104CA00085B5816085BD80916E00816080936E00C6
:104CB00010928100809181008260809381008091B8
:104CC0008100816080938100809180008160809369
:104CD00080008091B10084608093B1008091B00029
:104CE00081608093B00080917A00846080937A0024
:104CF00080917A00826080937A0080917A0081604E
:104D000080937A0080917A00806880937A00109274
:104D1000C10036E0E32E31E0F32E61E0F70181912E
:104D20007F010E94E900F4E1EF16F1E0FF06A9F728
:104D300080915F0390916003009711F00E94A92B6E
:104D400086E090E00E940D2B7C0188E6F7018083CD
:104D500080E794E092838183138280E290E09583E0
:104D60008483F0926003E0925F03109262031092DA
:104D700061031092B0031092D2030E94A20381E754
:104D800091E0909313038093120382E791E0909354
:104D900011038093100301E0F7010383C7010E9410
:104DA0007705811111C062E572E083ED93E00E9406
:104DB0005A0C83ED93E00E946F026AE070E080E09D
:104DC00090E00E943F01F9CF1E8A80915F0390918D
:104DD0006003FC0124813581232B89F0208100931D
:104DE000AF032093D1031092B0031092D20321E0BD
:104DF00041E050E0BE016A5E7F4F0E94590541E0EC
:104E000050E0CE0101967C01BC0180915F0390913E
:104E100060030E94690A898190E0880F892F881FAA
:104E2000990B892B09F4AAC064E672E083ED93E044
:104E30000E945A0C4BE050E06CE770E0C7010E9402
:104E4000EB29CE010A960E94F324082FE981E15450
:104E5000E33118F50E2E000CFF0BEF5CF84D0C94AF
:104E6000072BAC284D274D27C0284D27C2284D279A
:104E70004D274D2744274D274D27B328BE28BC2852
:104E80004D274D274D27BA288A8111E0813629F018
:104E90008B8116E08E3609F017E0CE0105960E9450
:104EA000F324D82E48E050E063E770E0C7010E9489
:104EB000EB29C7010E94F324C82ECE0104960E945C
:104EC000F324B82ECE0107960E94F324382F86E0F3
:104ED000F70111928A95E9F72AE0832F622F0E9449
:104EE000B12A982F880F890F880F830F8A838B2D03
:104EF0000E94B12A982F880F890F880F8B0D8B8302
:104F00008C2D0E94B12A982F880F890F880F8C0D45
:104F10008C838D2D0E94B12A982F880F890F880FBE
:104F20008D0D8E83812F0E94B12A982F990F890FA2
:104F3000880F180F1F83802F0E94B12A982F880F87
:104F4000890F880F800F888780915F03909160039D
:104F5000FC01248135812830310580F0208131E049
:104F60003093AF032093D1031092B0031092D20379
:104F700021E048E050E0B7010E94590564E670E086
:104F800080E090E00E943F0161E084E00E94E9003F
:104F90001092970410929604109295041092940423
:104FA00010929304109292048DE991E090939904E9
:104FB0008093980490918804963108F047C02DEBB7
:104FC00030E030939304209392042BE931E0309346
:104FD0009504209394042CE231E0309397042093BD
:104FE00096042091680084E0983048F031E09E30CB
:104FF00008F430E081E001C0880F3A95EAF7822B8F
:10500000809368002DE630E0983050F02BE630E0D9
:105010009E3030F02CE630E0963110F030E020E0A9
:105020003093900420938F04292F30E0983008F0BB
:10503000ABC081E001C0880F9A95EAF78093910494
:1050400080919804909199040197F1F780919604CA
:1050500090919704892B49F1E0911603F091170381
:1050600084E0EC37F80709F1309739F0A389B48967
:105070009C918589809589238C9380919A048E7F59
:1050800080939A0410921503109214038CE794E015
:105090009093170380931603E0918F04F09190048E
:1050A000808190919104892B80838CE090E00E9414
:1050B0004A2A809318038DE090E00E944A2A809348
:1050C00019038EE090E00E944A2A80931A038FE031
:1050D00090E00E944A2A80931B03809118039091CC
:1050E0001903A0911A03B0911B03892B8A2B8B2BD8
:1050F00009F457C00E9474180E94DD150E944E0AE0
:1051000000E010E08FB7F894C0905B03D0905C0390
:10511000E0905D03F0905E038FBF0E944E19809176
:105120001C0390911D03892B69F481E2C8168EE45B
:10513000D80640F0D0921D03C0921C030E94DD15DA
:105140000E944E0A01151105E9F20E94EC01882324
:10515000C9F20E940000D6CF8B8114E0823709F497
:105160009CCE18E09ACE8B8113E0823709F495CE5D
:1051700015E093CE19E091CE1AE08FCE1BE08DCED4
:105180001CE08BCE12E089CE9E3040F428503109CD
:1051900081E001C0880F2A95EAF750CF2E503109DF
:1051A000F7CFBE016C5E7F4F90E080E00E94730CF1
:1051B000FC01808191819D8B8C8BBE016E5E7F4F47
:1051C00084E090E00E94730CFC01808191819B8BB4
:1051D0008A8BBE01605F7F4F88E090E00E94730C75
:1051E000FC0180819181998B888B8C899D8900E15C
:1051F00010E0892B91F14E01FCE08F0E911C80E1B3
:1052000090E06C01C818D908B12CA12C3E0180E1B6
:10521000680E711C8601080D191D8C899D89A816C0
:10522000B906D8F48401C601800F911F0E944A2A52
:10523000F80181938F01E615F705A9F74C855D8587
:105240006E857F8585EB94E00E94CD12FFEFAF1A4B
:10525000BF0A84E0C80ED11CDDCF8A899B89892BC7
:1052600011F1D12CC12C8A899B89C816D906D8F492
:10527000C8010E944A2A8983C80101960E944A2ACD
:105280008A83C80102960E944A2A8B8349815A81E7
:105290006B8188EA94E00E949E120D5F1F4F9FEF82
:1052A000C91AD90AE0CF88899989892B91F16801B7
:1052B000CE18DF08B12CA12C772473944701E6E0C7
:1052C0008E0E911C87010C0D1D1D8A899B89A816C5
:1052D000B906F8F41D827E828701C601800F911FF6
:1052E0000E944A2AF80181938F018E169F06A9F722
:1052F00029813A814B815C816D817E818BE994E0CB
:105300000E945112FFEFAF1ABF0A86E0C80ED11CEF
:10531000D9CF83E2E82E83E0F82E03521340C80170
:105320008E0D9F1D0E944A2AF70181937F01FBE5A4
:10533000EF16F3E0FF0699F7DFCE8CE391E0909350
:105340007D0480937C0480911603909117038C5701
:10535000944071F4E0918F04F091900490818091D9
:10536000910480958923808310921703109216036D
:105370008BE994E00E94E10C88EA94E00E94C10C61
:1053800085EB94E00C94A10C1F93FC0199278827CE
:10539000BC01E89411911032E9F3193010F01E307D
:1053A000C8F31B3251F01D3249F4689406C00E94C4
:1053B000FF29610F711D811D911D119110531A302C
:1053C000B0F33EF490958095709561957F4F8F4F27
:1053D0009F4F1F910895FB01DC0102C005900D92C3
:1053E00041505040D8F70895BB274A3031F49923F3
:1053F00022F4BDE2909581959F4F0C94152A592F68
:10540000482F372F262F660F771F881F991F660F8B
:10541000771F881F991F620F731F841F951F660FC8
:10542000771F881F991F0895BB27FB015527AA27BF
:10543000880F991FAA1FA41710F0A41B8395505121
:10544000B9F7A05DAA3308F0A95DA193009779F799
:10545000B111B1931192CB010C94372A91110C9494
:10546000472A803219F089508550C8F70895DC0129
:10547000FC01672F71917723E1F7329704C07C918B
:105480006D9370836291AE17BF07C8F30895992793
:1054900088270895F999FECF92BD81BDF89A992782
:1054A00080B50895262FF999FECF1FBA92BD81BD10
:1054B00020BD0FB6F894FA9AF99A0FBE0196089596
:1054C0000E94A22AA59F900DB49F900DA49F800DCD
:1054D000911D112408952F923F924F925F926F92E7
:1054E0007F928F929F92AF92BF92CF92DF92EF9274
:1054F000FF920F931F93CF93DF93CDB7DEB7CA1BF5
:10550000DB0B0FB6F894DEBF0FBECDBF09942A881F
:10551000398848885F846E847D848C849B84AA84C7
:10552000B984C884DF80EE80FD800C811B81AA8154
:10553000B981CE0FD11D0FB6F894DEBF0FBECDBF1F
:10554000ED010895A29FB001B39FC001A39F700D0C
:10555000811D1124911DB29F700D811D1124911D7B
:105560000895991B79E004C0991F961708F0961BBF
:10557000881F7A95C9F780950895AA1BBB1B51E136
:1055800007C0AA1FBB1FA617B70710F0A61BB70BB3
:10559000881F991F5A95A9F780959095BC01CD0158
:1055A000089597FB072E16F4009407D077FD09D0D5
:1055B0000E94BD2A07FC05D03EF4909581959F4F2F
:1055C0000895709561957F4F0895A1E21A2EAA1B48
:1055D000BB1BFD010DC0AA1FBB1FEE1FFF1FA217A3
:1055E000B307E407F50720F0A21BB30BE40BF50BA0
:1055F000661F771F881F991F1A9469F76095709529
:10560000809590959B01AC01BD01CF010895EE0FEF
:10561000FF1F0590F491E02D09940F931F93CF93F2
:10562000DF938230910510F482E090E0E091C604AF
:10563000F091C70430E020E0B0E0A0E0309799F4AA
:105640002115310509F44AC0281B390B24303105D6
:10565000D8F58A819B816115710589F1FB019383DE
:105660008283FE0111C0408151810281138148175C
:105670005907E0F04817590799F4109761F012960E
:105680000C93129713961C933296CF01DF91CF9112
:105690001F910F9108950093C6041093C704F4CF8F
:1056A0002115310551F04217530738F0A901DB01EC
:1056B0009A01BD01DF01F801C1CFEF01F9CF90934D
:1056C000C7048093C604CDCFFE01E20FF31F819380
:1056D00091932250310939832883D7CF2091C40474
:1056E0003091C504232B41F4209102013091030134
:1056F0003093C5042093C40420910001309101012E
:105700002115310541F42DB73EB740910401509168
:105710000501241B350BE091C404F091C504E21788
:10572000F307A0F42E1B3F0B2817390778F0AC01C4
:105730004E5F5F4F2417350748F04E0F5F1F5093A1
:10574000C5044093C404819391939FCFF0E0E0E0BF
:105750009CCFCF93DF930097E9F0FC01329713823F
:105760001282A091C604B091C704ED0130E020E0A0
:105770001097A1F420813181820F931F2091C404DE
:105780003091C5042817390709F061C0F093C504AA
:10579000E093C404DF91CF910895EA01CE17DF07AB
:1057A000E8F54A815B819E0141155105B1F7E90198
:1057B000FB83EA8349915991C40FD51FEC17FD076C
:1057C00061F4808191810296840F951FE90199838C
:1057D0008883828193819B838A83F0E0E0E0129644
:1057E0008D919C9113970097B9F52D913C9111974C
:1057F000CD010296820F931F2091C4043091C504FD
:105800002817390739F6309751F51092C7041092CE
:10581000C604B093C504A093C404BCCFD383C28391
:1058200040815181840F951FC817D90761F44E5FDD
:105830005F4F88819981480F591F518340838A8126
:105840009B81938382832115310509F0B0CFF093BA
:10585000C704E093C6049ECFFD01DC01C0CF1382D4
:105860001282D7CFB0E0A0E0E8E3FCE20C946D2A0E
:105870008C01009751F4CB010E940D2B8C01C801C3
:10588000CDB7DEB7E0E10C94892AFC01E60FF71FE3
:105890009C0122503109E217F30708F49DC0D90199
:1058A000CD91DC911197C617D70798F0C530D10577
:1058B00030F3CE0104978617970708F3C61BD70B62
:1058C0002297C193D1936D937C93CF010E94A92B12
:1058D000D6CF5B01AC1ABD0A4C018C0E9D1EA09167
:1058E000C604B091C704512C412CF12CE12C109727
:1058F00031F58091C4049091C5048815990509F08B
:105900005CC04616570608F058C08091000190917F
:105910000101009741F48DB79EB740910401509169
:105920000501841B950BE817F90708F055C0F093A3
:10593000C504E093C404F90171836083A0CF8D9105
:105940009C91119712966C90129713967C901397D6
:10595000A815B90559F56C0142E0C40ED11CCA1452
:10596000DB0420F1AC014A195B09DA0112961597A4
:1059700080F06282738251834083D9016D937C935E
:10598000E114F10471F0D7011396FC93EE93129792
:1059900076CF22968C0F9D1FF90191838083F301AE
:1059A000EFCFF093C704E093C60469CF48165906B9
:1059B00008F42C017D01D3019ACFCB010E940D2B5D
:1059C0007C01009749F0AE01B8010E94EF2CC8019C
:1059D0000E94A92B870153CF10E000E050CFFB01BC
:1059E000DC0102C001900D9241505040D8F708955B
:1059F000FC018191861721F08823D9F79927089512
:105A00003197CF010895FB01DC018D910190801940
:105A10000110D9F3990B0895FB01DC0101900D925F
:105A20000020E1F7089510E0C2E7D0E004C0FE01D5
:105A30000E94072B2196C337D107C9F7F894FFCFEF
:105A40000000C804800005060708090A0B0C0D0EAB
:105A50000F1011140000000022028201AF016F023A
:105A6000E001BE01D201000000002705FA0456053E
:105A7000A702F304E004D10400000000A8028201A0
:105A80005605A70204031A038F0200000000E10C70
:105A9000F70C2F0A3B105112F7112D09140F010DAD
:105AA000780D030AC708380800000000C10CD70CA5
:105AB0002F0A95119E125A119309950FF60D400E5B
:105AC000330A2008910700000000A10CB70C2F0A30
:105AD000FB10CD12BC10E509E60F810ECF0E400A77
